:020000040800F2
:10000000B8A80020C10100084BB10008FD8E00080F
:10001000E1B00008A9110008353C0108000000000B
:10002000000000000000000000000000F3010008D4
:10003000812400080000000021090008D5CD000837
:10004000FB010008FB010008FB010008FB010008A0
:10005000FB010008FB010008FB010008FB01000890
:10006000FB010008FB010008FB010008FB01000880
:10007000FB010008FB010008FB010008FB01000870
:10008000FB010008FB010008FB010008FB01000860
:10009000FB010008FB010008FB010008FB01000850
:1000A000FB010008FB010008FB010008FB01000840
:1000B000FB010008FB010008FB010008FB01000830
:1000C000FB010008FB010008FB010008FB01000820
:1000D000FB010008551B0108FB010008FB0100089B
:1000E000FB010008FB010008FB010008FB01000800
:1000F000FB010008FB010008FB010008FB010008F0
:10010000FB0100086DF80008FB010008FB01000876
:10011000FB010008FB010008FB010008FB010008CF
:10012000FB010008FB010008FB0100082D2200086C
:10013000FB010008FB010008FB010008FB010008AF
:10014000FB010008FB010008FB010008EDEB0008C3
:10015000FB010008FB010008FB010008FB0100088F
:10016000FB010008FB010008FB010008FB0100087F
:10017000FB010008FB010008FB010008FB0100086F
:10018000FB010008FB010008FB010008FB0100085F
:10019000FB010008FB010008FB010008FB0100084F
:1001A0005DA90008FB01000821220008DFF80CD03F
:1001B00000F0AEFA00480047C1ED0108B8A80020E1
:1001C0000E488047DFF83800016841F47001016093
:1001D000BFF34F8FDFF82C00016821F04041016030
:1001E000BFF36F8F08480047FEE7FEE7FEE7FEE734
:1001F000FEE7FEE7FEE7FEE7FEE7FEE791120108F5
:1002000088ED00E034EF00E0AD01000872B6704701
:1002100062B67047EFF3108072B6704780F31088B3
:10022000704730BF704720BF7047B0FA80F070470A
:1002300090FAA0F0B0FA80F0704790FAA0F0704702
:100240002DE9F05F0546002092469B46884606460B
:10025000814640241BE0284641464746224600F09E
:1002600093F853465A46C01A914110D31146184686
:10027000224600F07AF82D1A67EB01084F46224615
:100280000120002100F071F817EB00094E41201EFB
:10029000A4F10104DFDC484631462A464346BDE866
:1002A000F09F10B5431A934209D28318881803E0CF
:1002B00010F8011D03F8011D521EF9D210BD40EACD
:1002C00001039B0703D009E008C9121F08C0042AD4
:1002D000FAD203E011F8013B00F8013B521EF9D2BB
:1002E00010BDD2B201E000F8012B491EFBD27047CD
:1002F0000022F6E710B513460A4604461946FFF7F2
:10030000F0FF204610BD034611F8012B00F8012B29
:10031000002AF9D11846704700F0004230F0004042
:100320000AD0C10D01F56071C0F3160042EA015117
:10033000C20840071143704700200146704730B59E
:100340000B46014600202022012409E021FA02F593
:100350009D4205D303FA02F5491B04FA02F528442D
:10036000151EA2F10102F1DC30BD202A04DB203A87
:1003700000FA02F1002070479140C2F1200320FAF8
:1003800003F3194390407047202A04DB203A21FAF6
:1003900002F00021704721FA02F3D040C2F120029E
:1003A00091400843194670472DE9FE4F804681EA87
:1003B0000300C00F0C46009021F0004123F00045DF
:1003C000B8EB0200A94105D24046214690461C46A2
:1003D0000B46024623F00040104304D1404621461C
:1003E00003B0BDE8F08F270DC7F30A00C3F30A512D
:1003F0000290401A0190402866DAC3F3130040F4DB
:10040000801B0098924620B10023D2EB030A63EBD5
:100410000B0B01985946C0F140025046FFF7A5FF6B
:1004200006460D4650465946019A00F083F910EBF6
:1004300008006141002487EA115284EAE7731A43F5
:100440003BD0009A3AB3019A012A4FEA075210DCD6
:10045000001B61EB02014FF0004202EA0752CDE9B6
:100460000042001C41F5801132462B4600F081F914
:10047000B6E7001B61EB0201001C41F58013001878
:100480005B412018A2F5001747EB030140EAD57045
:10049000B6196D4111E06D084FEA360645EAC075A0
:1004A0004FEA0752001B61EB0201001C41F580116D
:1004B00049084FEA30000019514132462B4603B03B
:1004C000BDE8F04F00F048B9009801224000002339
:1004D000D0EB020263EBE073009821464FEAE07430
:1004E000B8EB000061EB0401E9E783F000435BE750
:1004F00081F0004158E72DE9FE4F81EA030404F042
:10050000004421F0004100944FF0000B23F0004321
:1005100050EA010402D052EA030404D1002001464B
:1005200003B0BDE8F08FC3F30A54C1F30A552C445D
:10053000A4F2F3340194A0FB0254C1F3130141F47B
:100540008011C3F3130343F4801301FB024400FB47
:10055000034E840A970A44EA815447EA8357A4FB6E
:10056000076802958D0A05FB07854FEA932C04FB6B
:100570000C542705029D4FEA065847EA1637B5EB9B
:1005800008056EEB070C870E920E47EA811742EAC8
:100590008312A7FB0201B6EB0B0164EB00042B0DE9
:1005A00043EA0C335E1844EB1C50DA465146E7FB35
:1005B0000201C5F313044FEA0B3343EA14534FEA25
:1005C0000432019C43EA0603A4F10C040294009C4B
:1005D000CDE900B400F0CDF8A2E72DE9F04D81EAB5
:1005E000030404F0004B21F0004514464FF0000ACC
:1005F00023F0004150EA050220D054EA01021DD048
:10060000C5F30A570246C5F31303C1F31300C1F340
:100610000A5640F4801543F48013A7EB0608101B1C
:10062000D64608F2FD3873EB050002D308F1010845
:1006300001E092185B41B8F1000F03DA0020014697
:10064000BDE8F08D00204FF48011064684460EE090
:10065000171B73EB050705D3121B63EB050306435A
:100660004CEA010C49084FEA300092185B4150EA0D
:100670000107EDD152EA030012D082EA040083EAB6
:100680000501084303D100224FF0004308E0101B8E
:10069000AB4102D20122002302E06FF001025310AD
:1006A0001AEB06004CEB085110EB0A0041EB0B0172
:1006B000BDE8F04D00F050B8C1F30A52C1F3130188
:1006C00040F2FF3341F480119A4202DA00200146E1
:1006D000704740F233439A42A2F2334202DC524264
:1006E000FFF752BEFFF741BE30B5002904DB4FF0E3
:1006F0000044404264EB0101002B04DB4FF0004456
:10070000524264EB0303994208BF904230BD00009F
:10071000064C074D06E0E06840F0010394E807004E
:1007200098471034AC42F6D3FFF744FD7826020810
:1007300098260208202A06DBCB17203A41FA02F05D
:1007400043EAE07306E041FA02F3D040C2F120022E
:10075000914008431946704710B5002B08DA401C39
:1007600041F1000192185B411A4301D120F00100D0
:1007700010BD2DE9F04D92469B4611B1B1FA81F2C0
:1007800002E0B0FA80F220329046FFF7EEFD044618
:100790000F4640EA0A0041EA0B0153465A46084315
:1007A00003D120463946BDE8F08D114653EA0100D9
:1007B00015D0C8F140025046FFF7E6FD05460E464B
:1007C000504659464246FFF7D0FD084301D001206C
:1007D00000E00020054346EAE0762C4337430A98C0
:1007E0004FEA4453A0EB08004FEAD4240A304FF0FC
:1007F000000244EA47544FEAD72502D500200146BB
:10080000D1E7010510196941DDE908450019694181
:10081000BDE8F04DA0E770B501EB020410F8015BF4
:1008200015F0070301D110F8013B2A1106D110F889
:10083000012B03E010F8016B01F8016B5B1EF9D18D
:100840002B0705D40023521E0FD401F8013BFAE711
:1008500010F8013B02F10202A1EB030303E013F8DD
:10086000015B01F8015B521EF9D5A142D6D30020ED
:1008700070BD0000EFF3098141B1F1EE101A40F8AC
:10088000041D20ED200A3A490A6810607047B0EC58
:10089000200A02C8E1EE101A36490A681060704753
:1008A00072B64EF62250CEF2000040F2FF01C0F2C6
:1008B0000001017040F23C10C2F20000016881F3B7
:1008C000088840F2A600C2F2000040F2A701C2F27E
:1008D00000010A78027040F23415C2F2000540F2BD
:1008E0003811C2F200010A682A60106880F3098892
:1008F0004FF0020080F31488BFF36F8FBDE8F00F54
:100900000FBCBDE8005006BC62B608471A484FF05D
:1009100080510160704718484FF080510160704766
:1009200072B6EFF3098020E9F00F40F23415C2F2FD
:1009300000052E68306074460CF01CF940F2A600E9
:10094000C2F2000040F2A701C2F200010A78027070
:1009500040F23811C2F200010A682A6044F0F40E35
:100960001068B0E8F00F80F3098862B670470000A5
:10097000340100203801002004ED00E008B56B468A
:10098000012205A108480BF0BFF86B46002207A121
:1009900009480BF0B9F808BD4170705072696E7467
:1009A0006653656D70000000D83A002053454D5FD6
:1009B00053594E4348000000003B002008B505E0B5
:1009C0006A4600214FF4FA700CF046F9F8E700008F
:1009D00000B58BB00AA8032100220592CDE90621BB
:1009E000089010464FF4007133222B4BCDE90132B1
:1009F000CDE9031003200023284A29A100902B48A9
:100A00000BF066FB0AA8072100220592CDE906211A
:100A1000089010464FF400713322254BCDE9013286
:100A2000CDE9031004200023224A23A10090264888
:100A30000BF04EFB0AA8032100220592CDE9062106
:100A4000089010464FF400713322204BCDE901325B
:100A5000CDE90310052000231D4A1EA10090214866
:100A60000BF036FB0AA8072100220592CDE90621EA
:100A7000089010464FF4806166221B4BCDE901328D
:100A8000CDE903101C200023184A19A100901C482E
:100A90000BF01EFB0BB000BD741000200D0B000806
:100AA000417070204D73702050726F00A80F0020AD
:100AB0000C220020390C0008417070205461736BC7
:100AC00020557365724946004021002040190020DE
:100AD000BD090008417070205461736B20434F4D75
:100AE0000000000074180020D82A0020050B000820
:100AF000417070205461736B20475549000000001D
:100B00000C2A002001E00AF0D3FAFCE788B00024A8
:100B10002CE007A800231A461946009014480BF051
:100B200037F8BDF81C0008BB224612A102A81BF032
:100B30005DF907A80AF05CFF13A01DF00EFA154935
:100B400008700A2202A914481DF0E8FA1149087039
:100B50001149124803F0F2FD0F481DF0E9F90D4963
:100B6000087007A80AF082FF601CC4B2D1E7000039
:100B7000003B0020303A2F506963536176652F2582
:100B8000642E626D70000000303A2F50696353612B
:100B9000766500000C020020D07C002085BC010896
:100BA00008B50025002400F001FB1CF023FA00F03A
:100BB0008FF868460BF002FA00F066FBFFF708FFBB
:100BC000FFF7DCFE31E0194890F8280001280DD12C
:100BD00010F02AFE681CC5B20A2D02D100251CF0B7
:100BE0006BFB6A46002101200CF036F810480078B3
:100BF00001280DD11CF060FB601CC4B2022C02D194
:100C0000002403F0C5F86A4600210A200CF024F8FD
:100C100008484078012808D11CF04EFB02F00AFE7B
:100C20006A4600210A200CF017F8CCE70056002095
:100C300090560020B456002008B518E01CF0CEF8FD
:100C400004467CB1012C02D0042C09D102E001F051
:100C500019FC06E06A46002105480BF07DF800E02B
:100C600000BF00BF6A46002114200BF0F5FFE5E746
:100C7000003B00200FB400B599B01BA80390512190
:100C800004A8039B1A9A1BF0C5F80020039002A841
:100C900000231A461946009007480AF079FF04A974
:100CA00006A01BF093F802AA002103480BF054F8A9
:100CB00019B05DF814FB0000D83A0020257300003D
:100CC0001FB568460DF0FAFF019804B010BD000092
:100CD00070B5FFF7F5FF044603480068B4FBF0F574
:100CE00028460CF097F870BD98F2010838B54468B2
:100CF00005460146204612F0BAFF002808BF38BD5D
:100D0000464A286811280DD006DC0B282AD00E2868
:100D100038D00F2817D07CE0282873D0B0F5107F8A
:100D20000AD076E09268002A08BF38BD294601B093
:100D30002046BDE830401047526801B029462046A1
:100D4000BDE8304010472546204603F067FC009080
:100D5000406E0468684603F0CBFC002C1CBF28469C
:100D6000A04738BD204603F059FC0090683003F0DE
:100D700057FB009803216C3003F080FB684603F0BA
:100D8000B7FC46E0E968486809680D2902D02029C7
:100D900018D037E0002835DD4FF48071204613F07D
:100DA00031F8204603F03AFC009090F8285068464D
:100DB00003F09EFC15F0020F1ED00121204614F016
:100DC00059F919E0002817DD25464FF480712046B7
:100DD00013F018F8284603F021FC009090F8284002
:100DE000684603F085FC14F0020F08BF38BD0121EE
:100DF000284614F03FF938BD2046BDE838400221AE
:100E000019F042BFE86820B920464FF4807112F013
:100E100013FF2846BDE8384013F066B9600400208F
:100E200070B5044686B08069B4F908C0658A0026AA
:100E30000091CDE90165CDE903C0B4F90C00B4F926
:100E40001050C118B4F90A00B4F90EC010442B4672
:100E5000624600F007F80546616800F079F906B0CF
:100E6000284670BD2DE9F04F85B09846DDE9116444
:100E7000DDE90E5791468A46834604F019FB04F1DA
:100E80004C001749CDE90210CDE9005743464A46C8
:100E90005146584613F06CF805001BD003F0BEFB1A
:100EA00010223146049012F0C9FF0E4C0499B4E8A8
:100EB000CD133431A1E8CD1394E80D10A1E80D1045
:100EC00054F82C0D086004A803F012FC2068416857
:100ED0002846884706F08CFB05B02846BDE8F08F11
:100EE000ED0C00086C040020F0B5044680688C49C5
:100EF00089B051F820506068002800F00A81052868
:100F000006D006287DD0122800F0B48000F004B985
:100F1000E869002808BF002651D0D5E90012AB6867
:100F20008DE80F0004F110010FC907F027F9002622
:100F300055F8260006F0C3F8A169E8690A1A216984
:100F400001446069304403F0F1FFA169E8690A1ABD
:100F500021690144E069801B03F0E8FFE169E86969
:100F60000A1A616901442069304404F07BF8E169A0
:100F7000E8690A1A61690144A069801B04F072F8EB
:100F8000761C022ED4DBA86806F099F8E069E969BE
:100F9000D4F814C0431A206942186144801C521EC0
:100FA00004F0BCF8E169E869A2690B1A61690144BF
:100FB000101A401C921E04F0B1F8EE6911E055F8C9
:100FC000260006F07CF8E069831BA069821B60693B
:100FD00081192069304403F0FDFF761C022EEEDB00
:100FE0000226D5E90301CDE90001E1696069014408
:100FF0004B10A1698A1B811C2069304403F08CFED0
:1010000000E011E0D5E90501CDE90001E069616981
:10101000831E01440122A06902EB6101821B206949
:10102000304403F079FE77E0206803F0F7FA04908B
:10103000206815F0DBF850B1A068002818BF002028
:101040000AD10498006F002818BF012004E004981A
:10105000406F002818BF0220049901EB8000C56E84
:1010600004A803F045FB00231A462846216803F034
:10107000D9FD51E0206803F0D1FA0490866E002E6D
:1010800008BF04A842D0A168B0F95C70002908BF6D
:10109000012103D003290CBF0221002100EB8101B3
:1010A000406D0C6C06F022F8204606F008F806A801
:1010B00004F0F8F8BDF81810A88B0144ADF818102A
:1010C000BDF81C10081AADF81C00BDF81A00801CF1
:1010D000ADF81A00BDF81E00801EADF81E00049881
:1010E000B0F96020B0F95E1006A805F0DFFB04A897
:1010F00003F0FEFA022006F077F8304603F08EFA8D
:101100003A4606A9059003F0DBFD05A803F0F0FAC6
:1011100002E0206814F0A0FA09B00020F0BD000041
:10112000901D0208002808BF704738B50C460546D8
:1011300004F0BEF9284603F071FA00904465684651
:1011400003F0D6FA284613F0D1FE06F051FA38BD66
:10115000F0B583B00F4605004FF0010421D004F034
:10116000A7F9284603F05AFA0190866E01A8009666
:1011700003F0BEFA3946684607F018FC78B10098CB
:101180000024B04208D0284603F048FA01900099A4
:10119000816601A803F0ACFA284613F0A7FE06F01A
:1011A00027FA03B02046F0BD00BFFEE710B500F0FF
:1011B000FDF800F003F800F0F3F810BD70B500265C
:1011C0000020184908801849088018490860184903
:1011D0000860184908601849086018490860002428
:1011E00000BFFFF717F8064600BF00250BE0002000
:1011F0001049086000F074F800F08CF80D480068A1
:101200000444681C85B2002DF1D00C480460002015
:10121000084908600849086000BF3046FEF7FEFF35
:1012200000BF70BD440000204600002048000020A0
:101230004C000020540000205800002050000020E6
:1012400001460846044A1268904203D9024A1268CD
:10125000801A00E0002070475000002070B5002583
:1012600000BFFEF7D7FF054600BF0648046800BF71
:101270002846FEF7D3FF00BF2046FFF7E1FF0646F2
:10128000304670BD5400002070B50025FFF7E6FF22
:10129000044600BFFEF7BEFF054600BF002004491C
:1012A000086000BF2846FEF7B9FF00BF204670BDAA
:1012B0005400002070B5002500BFFEF7ABFF0546C7
:1012C00000BF0648046800BF2846FEF7A7FF00BF1E
:1012D0002046FFF7B5FF0646304670BD5800002097
:1012E00010B509480088401C074908800748008855
:1012F00018B900F085F80649086004480088401CC9
:101300000249088010BD0000440000204600002073
:101310004800002010B50F480088401E0D49088085
:1013200008460088A0B900F06BF80B490860084631
:1013300000680A490968441A09480068A04201D2B5
:101340000748046007480068A04201D205480460CD
:1013500010BD0000460000204C0000204800002086
:10136000540000205800002010B5002400BF00BF2A
:10137000FEF750FF044600BFFFF7B2FF00BF102189
:10138000064809F0AFFE00BFFFF7C4FF00BF2046CC
:10139000FEF744FF00BF00BF10BD0000CC4400209A
:1013A00010B5FFF7E1FF10BD00BFFEE710B500204C
:1013B0000249086000F00AF810BD0000400000205B
:1013C00001490860704700004000002010B5FFF799
:1013D00077FC04460848006840F0807006490860C1
:1013E0000020064948600846006840F00100086097
:1013F0002046FFF7E5FF10BDFCED00E0001000E027
:101400000149486870470000001000E070B50446CC
:10141000049D581A2E1B7043161B90FBF6F00844CF
:1014200070BD70B500254FF4803400E0641E24B117
:1014300080200EF0EFF90028F8D014B903252846D3
:1014400070BD40F2FF500EF0A1F92846F8E7000009
:101450002DE9F041064600274748056801E0464867
:10146000056815F0450FFAD015F0040F06D00327D4
:1014700004200EF08BF93846BDE8F08115F0010F1D
:1014800005D0012701200EF081F93846F4E70EF06F
:10149000BBF9B04202D010273846EDE740F2FF50CA
:1014A0000EF074F900200EF0D5F9044633480442DA
:1014B00001D13846E0E714F0004F01D01C20DBE7F3
:1014C00014F0804F01D00920D6E714F0005F01D05E
:1014D0000A20D1E714F0805F01D00B20CCE714F094
:1014E000006F01D00C20C7E714F0806F01D00D20F1
:1014F000C2E714F0807F01D00E20BDE714F4000F86
:1015000001D00F20B8E714F4800F01D01020B3E70A
:1015100014F4001F01D01120AEE714F4801F01D095
:101520001220A9E714F4002F01D01320A4E714F42B
:10153000802F01D014209FE714F4003F01D0152024
:101540009AE714F4803F01D0162095E714F4004F79
:1015500001D0172090E714F4804F01D018208BE7BA
:1015600014F4005F01D0192086E714F0080F01D0B1
:101570001A2081E738467FE7342C014008E0FFFD60
:1015800070B500250F48046801E00E48046814F0A7
:10159000450FFAD014F0040F05D0032504200EF0F7
:1015A000F5F8284670BD14F0010F05D00125012083
:1015B0000EF0ECF82846F5E740F2FF500EF0E6F8A2
:1015C0002846EFE7342C014070B500250B4804682D
:1015D00001E00A48046814F0450FFAD014F0040F33
:1015E00005D0032504200EF0D1F8284670BD40F246
:1015F000FF500EF0CBF82846F8E70000342C0140ED
:101600002DE9F04106460F464FF0000822480568D4
:1016100001E02148056815F0450FFAD015F0040FD8
:1016200007D04FF0030804200EF0B0F84046BDE8A4
:10163000F08115F0010F06D04FF0010801200EF0E7
:10164000A5F84046F3E70EF0DFF8B04203D04FF0C4
:1016500010084046EBE740F2FF500EF097F80020EC
:101660000EF0F8F8044614F4604F03D1200C3880D3
:101670004046DCE714F4005F01D01320D7E714F4F0
:10168000804F01D01020D2E714F4004F01D00F207A
:10169000CDE74046CBE70000342C014070B5002672
:1016A0004FF480350F48046802E06D1E0D48046851
:1016B00014F0450F01D1002DF7D115B114F0040F2E
:1016C00005D0032604200EF061F8304670BD14F0FA
:1016D000400F05D0002640200EF058F83046F5E7C0
:1016E0003046F3E7342C014008B525208DF8000082
:1016F00001208DF8010000208DF8020001208DF8F6
:101700000300684609F022FD08BD38B5044620698B
:1017100040680090009820F00200801C0090009922
:1017200020694160032011F031FB38BD70B50646D9
:101730000C4604F08000802808D104F07F0000EB04
:10174000800106F58E7000EBC10507E004F07F0014
:1017500000EB800106F55D7000EBC10504F07F0031
:10176000287004F08000C00968702946304611F0E6
:101770007CFE002070BD70B506460C4604F080006B
:10178000802808D104F07F0000EB800106F58E7000
:1017900000EBC10505E004EB840106F55D7000EB8C
:1017A000C1050020A87004F07F002870C4F3C010A9
:1017B00068702946304611F030FE002070BD70B5CB
:1017C00005460C4604F08000802805D104F07F0116
:1017D000284612F055F802E0284612F02BF80020B7
:1017E00070BD2DE9F04106460D4690461F4605F0B6
:1017F0008000802808D105F07F0000EB800106F50D
:101800008E7000EBC10407E005F07F0000EB800163
:1018100006F55D7000EBC10405F07F00207005F057
:101820008000C0096070C4F80880E770607808B173
:101830002078E080022F01D100202071214630461F
:1018400011F09FFD0020BDE8F0812DE9F041054633
:101850000E461746984606F07F0000EB800105F51E
:101860005D7000EBC104E760C4F814800020A06143
:10187000607006F07F002070E878012800D12761B1
:10188000207820B92146284611F09FFC03E021462C
:10189000284611F04BFE0020BDE8F08108B500227B
:1018A0000092009A61F30A12009202691268009B8A
:1018B0001A4303691A6008BD70B506460C4604F069
:1018C0008000802808D104F07F0000EB800106F53D
:1018D0008E7000EBC10505E004EB840106F55D7038
:1018E00000EBC1050120A87004F07F002870C4F34C
:1018F000C01068702946304611F0E6FD002070BD2A
:101900002DE9F04107460D461646984605F07F0042
:1019100000EB800107F58E7000EBC10401206070C0
:1019200005F07F002070E66026610020A061C4F809
:101930001480207820B92146384611F046FC03E097
:101940002146384611F0F2FD0020BDE8F08100008C
:1019500030B587B00546594C284611F0FCFB01A86C
:101960000DF0ACF9029CE868C0680590059820F479
:10197000705005900598E968C860284611F0AAFFE4
:1019800003280BD10020A8704FF40070A8800598A0
:1019900020F4705000F5105005907EE00120A870F2
:1019A0004020A8804648844209D34648844206D253
:1019B000059820F4705000F5605005906DE04148A6
:1019C000844209D34048844206D2059820F47050DE
:1019D00000F55050059060E03B48844209D33B48F5
:1019E000844206D2059820F4705000F540500590CE
:1019F00053E03648844209D33548844206D20598DC
:101A000020F4705000F53050059046E03048844294
:101A100009D33048844206D2059820F4705000F56E
:101A20002050059039E02B48844209D32A4884424B
:101A300006D2059820F4705000F5105005902CE067
:101A40002548844209D32548844206D2059820F4CB
:101A5000705000F5005005901FE02048844209D3E3
:101A60001F48844206D2059820F4705000F5E050DB
:101A7000059012E01A48844209D31A48844206D2DB
:101A8000059820F4705000F5C050059005E00598C9
:101A900020F4705000F5A05005900598E968C860E2
:101AA00000200690069820F4005000F500500690A3
:101AB0000698E9684861012007B030BD007A030A42
:101AC000C0E1E4000024F400E0EC040100C31801CC
:101AD000002D310140A44C0100366E0140E2950119
:101AE00080C3C90160600B02F8B5054600240020E0
:101AF0000090284611F02FFF064680E016F0010FF7
:101B00007BD0E1B2284600F00BFB0090009810F06B
:101B1000010F26D0012000FA04F72869406BB84372
:101B20002969486300200090009820F00100401CC3
:101B3000009005F1180050F8240000998160E1B28E
:101B400031480068426828469047E878012808D163
:101B50003CB940F21110405D042802D1284611F032
:101B6000DFFB0098C0F3C00060B100200090009837
:101B700020F008000830009005F1180050F824000B
:101B8000009981600098C0F3001060B100200090BF
:101B9000009820F010001030009005F1180050F867
:101BA0002400009981600098C0F3801060B100208B
:101BB0000090009820F040004030009005F118009F
:101BC00050F82400009981600098C0F3400060B193
:101BD00000200090009820F00200801C009005F189
:101BE000180050F82400009981600098C0F3C010DC
:101BF00018B12146284600F0BDFA641C7608002E74
:101C00007FF47CAF0120F8BD480200207CB504467B
:101C1000002500200190204611F0A5FE06466EE04A
:101C200016F0010F69D0E9B2204611F0A4FE019030
:101C3000019810F0010F39D000200190019820F098
:101C40000100401C019004F1540050F82500019956
:101C50008160E078012817D104F1540050F8250084
:101C60000069009005EB850104F55D7000EBC10093
:101C700080680099C1F31201411A05EB850204F551
:101C80005D7000EBC2008161E9B21F480068026824
:101C900020469047E078012808D13DB940F2111064
:101CA000005D052802D1204611F03AFB0198C0F3EF
:101CB000400060B100200190019820F00200801CDB
:101CC000019004F1540050F82500019981600198B9
:101CD000C0F3C00088B10C4800688168204688477E
:101CE00000200190019820F008000830019004F1D4
:101CF000540050F82500019981606D1C7608002E73
:101D00008ED101207CBD0000480200203EB5044673
:101D1000A07A78B1D4F80C0100680090009820F007
:101D200002000090009820F0010000900099D4F883
:101D30000C01016000200190019820F00100401C7E
:101D400001902069406801998843216948600948E9
:101D5000006881692046884700200290029820F0A0
:101D6000004000F1004002900298E16848610120C3
:101D70003EBD0000480200207CB5044600200190D2
:101D8000019820F0100010300190E06880690199FE
:101D90008843E1688861E068006A0090009800F07C
:101DA0000F0000EB800104F55D7000EBC1050098A9
:101DB000C0F3434007282DD2DFE800F02C04051DB6
:101DC0001E2C1F0027E00098C0F30A1090B1009865
:101DD000C0F30A122046E96811F0D7FDE8680099BF
:101DE000C1F30A110844E860A8690099C1F30A1117
:101DF0000844A8610FE00EE00DE0082204F2CC5187
:101E0000204611F0C2FDA8690099C1F30A110844E7
:101E1000A86100E000BF00BFE06880690199084345
:101E2000E168886101207CBD38B504460848006837
:101E3000C1682046884700200090009820F00800E4
:101E4000083000900098E1684861012038BD00002A
:101E5000480200201FB50446002000904FF489700E
:101E6000005D00902348006841692046884720694A
:101E70008068019000200390039820F4006000F532
:101E8000006003900398E1684861A07A70B30198FC
:101E900010F0010F2AD040F21510005D012825D165
:101EA0009DF80000032821D100200290029820F024
:101EB0000100401C0290D4F80C010068029908430C
:101EC000D4F80C110860029820F00200801C0290E7
:101ED000D4F80C01006802990843D4F80C1108608A
:101EE0000548006840F0060003490860012004B07E
:101EF00010BD00004802002010ED00E030B587B0B2
:101F000004460020029006900590049003900190F2
:101F1000029820F00100401C02902069406802995C
:101F20008843216948600021204611F0A9FC002562
:101F30000BE0FF2104F1180050F82500816004F146
:101F4000540050F8250081606D1C6078A842F0D8DC
:101F50004FF0FF312069816106986FF30F00401C3C
:101F60000690069880B200F58030069006992069A8
:101F7000C161059820F0080008300590059820F010
:101F80000100401C0590059820F00200801C05907F
:101F9000059920694161049820F00100401C0490DB
:101FA000049820F0080008300490049820F0020003
:101FB000801C0490049920690161206900680390E5
:101FC000039820F4FE600390039920690160204685
:101FD00011F0A6F900200190019820F4805000F53E
:101FE000805001900198E1684861044800680169E7
:101FF00020468847012007B030BD0000480200207D
:102000002DE9F04106460F463946304611F0D2FC24
:1020100001214FF4897081550021801C81550025D4
:1020200011E005EB850106F58E7000EBC10401207F
:1020300060702570E5800020E0704020A0600020E6
:10204000E06060616D1C7078A842EAD8002510E05D
:1020500005EB850106F55D7000EBC10400206070A2
:102060002570E580E0704020A0600020E0606061A5
:102070006D1C7078A842EBD8304611F05BF8304602
:1020800010F090FE0021304611F0FCFC304610F0BC
:1020900016FF304611F0BDFBBDE8F08138B50446AF
:1020A0000020009007480068C169204688470098D2
:1020B00020F4801000F5801000900098E1684861DD
:1020C000012038BD4802002038B5044600200090A9
:1020D00007480068016A20468847009820F40010ED
:1020E00000F5001000900098E1684861012038BDBB
:1020F0004802002038B50446E06840680090009827
:10210000C0F3800020B105480068816A20468847F6
:102110000098E1684860012038BD000048020020B6
:1021200030B5024615692B6915696C6B24FA01F507
:1021300005F0010543EAC51302F1180555F82150D1
:10214000AD6805EA030030BD38B5044608480068AC
:10215000416A2046884700200090009820F0804087
:1021600000F1804000900098E1684861012038BD8E
:10217000480200202DE9F84306460F4600250020BE
:10218000009007EB870106F58E7000EBC104D4E9DF
:102190000501451AA068A84200D2A568E81C4FEACC
:1021A000900806F1180050F827008069009029E097
:1021B000D4E90501451AA068A84200D2A568E81C28
:1021C0004FEA9008ABB2FAB23046E16811F081FCF8
:1021D000E0682844E060A0692844A06106F1180086
:1021E00050F8270080690090D4E90501884209D1A0
:1021F0002178012000FA01F93069406B20EA0900DA
:1022000031694863009880B2404506D9D4E9051089
:10221000884202D260690028CAD10120BDE8F88353
:10222000022001498860704700B0024010B50EF0EE
:1022300011FA10BD0246094B9A4201D2084801E04A
:102240000648103811F0005F03D0064B0B40C36006
:1022500002E0044B0B4083607047000010640240B2
:10226000006002407D0F7D0F21B1026842F0010243
:10227000026003E0026822F0010202607047000081
:10228000016821F00101016000210160416081606D
:10229000C1600161212141614A49884204D13D2147
:1022A000484A103A91608CE046491831884205D17D
:1022B0004FF47461434A103A916082E041493031F1
:1022C000884205D14FF474113E4A103A916078E08B
:1022D0003C494831884205D14FF07461394A103A7F
:1022E00091606EE037496031884204D13649354A01
:1022F000103AD16065E033497831884204D13349DE
:10230000304A103AD1605CE02E499031884204D1C5
:102310002F492C4A103AD16053E02A49A83188420B
:1023200005D14FF03D51274A103AD16049E0294983
:10233000884204D13D21274A083A116041E02549ED
:102340001831884205D14FF47461224A083A11606D
:1023500037E020493031884205D14FF474111D4ACD
:10236000083A11602DE01B494831884205D14FF0F1
:102370007461184A083A116023E0164960318842B6
:1023800004D11149134A121F11601AE01149783122
:10239000884204D10D490F4A121F116011E00D4906
:1023A0009031884204D10A490A4A121F116008E09C
:1023B0000849A831884204D14FF03D51054A121F07
:1023C00011607047106002403D000020400F002067
:1023D00000003D201064024021B1026842F020025A
:1023E000026003E0026822F020020260704710B52C
:1023F00011F0800F09D022B1436943F0800343619B
:1024000003E0436923F08003436180290BD02AB1A4
:10241000036801F01E042343036004E0036801F035
:102420001E04A343036010BD10B500220268134BC5
:102430001A40CC680B6823434C6923438C692343BF
:10244000CC6923430C6A23434C6A23438C6A23439D
:102450004C6B23438C6B23431A430260426922F086
:102460000702D1E90B3423431A4342610B694360ED
:102470004B6883608B68C36010BD00003F801CF018
:102480007047000070B52DED048B86B09FED330AC8
:10249000B0EE408A002500BF00BFFDF7BBFE054639
:1024A00000BFFEF71DFF00BF2D48046800BFFEF708
:1024B00031FF00BF2846FDF7B1FE00BF00BF29482D
:1024C000FEF7D8FB28A0FEF7D5FB33A0FEF7D2FB22
:1024D0003DE034F8900F00EE100AB8EE400ADFED50
:1024E0003A0A80EE208A18EE100AFDF715FF41EC3B
:1024F000100BB0EE409AF0EE609AD4E90801014466
:1025000064225043B0FBF1F654F8880C04908DED32
:10251000029B009614F8591CD4E90823A4F19004F6
:102520002AA0FEF7A7FB00BF00BFFDF773FE05461C
:1025300000BFFEF7D5FE00BFD4F8C44000BFFEF7D1
:10254000E9FE00BF2846FDF769FE00BF00BF002C72
:10255000BFD106B0BDEC048B70BD000000000000D0
:10256000F4000020F4F1010820D3C5CFC8BCB62088
:10257000CAB9D3C3D5BB20CAA3D3E0D5BB20B0D939
:10258000B7D6B1C820C0FBD3C3C2CA202020C8CE52
:10259000CEF1C3FB0D0A000020205072696F20208D
:1025A00020557365642020467265652020205065A3
:1025B0007220202020435055202020202054617379
:1025C0006B6E616D650D0A000000C8422020202559
:1025D00032642020253564202025356420202025E4
:1025E000303264252520202025352E3266252520F1
:1025F000202025730D0A000010B50246002000239C
:10260000102A03D14FF02044636E0DE0B2F5807FB5
:1026100002D1094C236807E0B2F5805F02D1074C74
:10262000236801E0064C236803EA01048C4201D0D0
:10263000002000E0012010BD840000A0A40000A044
:10264000580100A051B14FF0204252F8202042F032
:1026500001024FF0204343F8202009E04FF02042D0
:1026600052F82020034B1A404FF0204343F820201B
:1026700070470000FEFF0F0030B5002200214FF030
:102680002044036854F82310494B1940D0E9013421
:102690002343C4682343046923434469234384696F
:1026A0002343C4692343046A2343446A2343846A5B
:1026B0002343C46A2343046B2343446B23431943DA
:1026C0004FF02044036844F823108368082B09D195
:1026D000036854F8233043F040034FF0204504686A
:1026E00045F82430436BB3F5801F19D10368BBB1A3
:1026F0004FF020435B6823F470024FF020431B68C7
:10270000446B23434FF02044236023461B6843F46B
:1027100080732360836B1B8A5B1E42EA03536360F2
:10272000836B1B68846B646843EA0413846BA4683E
:1027300043EA0423846BA48943EA0443846B248A18
:1027400043EA0453846B247D43EA0463846BA469E5
:1027500023430468641C4FF0204545F82430836A05
:10276000B3F5804F1AD1C36B1B68C46B646843EA2E
:102770000413C46BA46843EA0423C46B248A43EAA9
:102780000453C46B247D43EA0463C46BA4692343EC
:10279000046805EB8404C4F8043108E06FF070436A
:1027A0004FF02045046805EB8404C4F8043130BDC3
:1027B0008000E7FF0021D0E900231A4383685B1EF5
:1027C00042EA4312C36842EA4321014A116070475A
:1027D000500100A070B500220021002300244FF01A
:1027E0002046056806EB8505D5F840216FF30E02FB
:1027F000D0E901563543C668354306693543466915
:10280000354386693543C6693543066A3543466AAA
:1028100035432A4305683DB94FF02046056806EB6D
:102820008505C5F8402115E03E4D2B686FF30E037A
:10283000D0E9075645EA0605466A45EA060545EA2F
:102840000303384D2B604FF02046056806EB8505E5
:10285000C5F84021056875BB324D0835066855F846
:10286000261001F07041856A2D686D1E866A7668B3
:10287000761E45EA0616856AAD686D1E46EA05268F
:10288000856AED686D1E46EA0536856A2D8A6D1EDD
:1028900046EA0546856AAD8A6D1E46EA0556856A92
:1028A0002D7E6D1E46EA056529431E4D08350668D6
:1028B00045F8261034E0FFE71A4D0835066855F84C
:1028C000261001F07041856A2D686D1E866A766853
:1028D000761E45EA0616856AAD686D1E46EA05262F
:1028E000856A2D8A6D1E46EA054529430E4D2C68E2
:1028F00004F07044856AED68A5F101054FEA0536DC
:10290000856AAD8AA5F1010546EA055545EA040444
:102910004FF02045C5F84841034D066845F826109C
:1029200070BD0000400100A0480100A004490968F2
:1029300041EA40014FF02042C2F8541170470000B4
:10294000540100A02DE9F047446805468EB04FF0D1
:102950000008204601F062FE0090B0F87CA0D0F89C
:102960006890D0F88070D0F88860C06D002818BFDB
:10297000D0F80080684601F0BBFE56B17168284669
:10298000884700281CBF0EB0BDE8F0873668002ECF
:10299000F4D12868172802BFC5F80C900EB0BDE826
:1029A000F08713DC0F2844D00ADC0B2800F0538199
:1029B0000D2808BF1AF0080F00F0F68000F054B997
:1029C000112814D0142870D000F04EB926286DD0EC
:1029D00006DC1E286BD0202800F0F08000F044B9FF
:1029E0002A2818D0B0F5107F2AD000F03DB9204633
:1029F000EE6801F013FE0190717A002904BF317A6C
:102A0000012905D1B0F87C1041F48071A0F87C1048
:102A100001A800F0FDB8204601F000FE0090E96832
:102A2000002912BFC0F88410D0F88400E86068461E
:102A300049E0B8F1000F1CBF2046C04700F014B9B0
:102A400027462046EE6801F0E9FD0190B0F87C4091
:102A500001A801F04DFEE868002804BF0EB0BDE8F3
:102A6000F087307A20B314F0080F04BF384612F014
:102A700011FD384611F038FA14F0100F12BF14F49B
:102A8000807F0EB0BDE8F087002314F0800F1CBFDC
:102A90000EB0BDE8F08779483146B0F900203846DD
:102AA00012F09EFC0EB0BDE8F0870FE018E024E0C5
:102AB000384601F0B3FD0190B0F87C1021F480712C
:102AC000A0F87C1001A801F013FEEBE705A9204651
:102AD00000F02DFCDDE90612E86801604260E1E7E4
:102AE000E8680228DED10C94E8680D9027200A904F
:102AF0000AA9A86813F048FDD4E7E868012819D0AE
:102B0000002CCFD002F0D4FC204601F087FD0190CC
:102B1000B0F87C1011F0080F06D021F00801A0F8E1
:102B20007C10204612F0E2F901A801F0E1FD04F06A
:102B30005FFDB7E7384612F040FA58B1384612F058
:102B4000A9FC384612F0E8F888B10121384611F0A6
:102B500059F90CE0484612F0F9FC0746204601F00E
:102B60005DFD0090C0F88070684601F0C1FDB4B111
:102B700002F09EFC204601F051FD0290B0F87C105E
:102B800011F0080F06D141F00801A0F87C10204692
:102B900012F0ACF902A801F0ABFD04F029FD002F02
:102BA00004BF0020E8607DE7E868C06800281FBF18
:102BB000007A0028204612F06DFC55E0EE684EB316
:102BC0002146706813F0EAFA00282746204622D0F2
:102BD00001F024FD0490B0F87C1011F0080F06D12C
:102BE00041F00801A0F87C10384612F07FF904A8E3
:102BF00001F07EFD2146706813F0BCFA50B120460A
:102C000001F00CFD02907168C0F880100DF1080011
:102C100001F06EFD28E001F001FD0490B0F87C1099
:102C200011F0080F06D021F00801A0F87C103846FA
:102C300012F05CF904A801F05BFD2146306813F046
:102C400099FA88B1204601F0E9FC02903168C0F899
:102C5000801002A8DCE7204601F0E0FC0090703014
:102C600001F0DEFB6846D3E72946204610F0FFFF5F
:102C700000281CBF284611F037FA13E79C040020F7
:102C800070B588B0B0F908400DF10C0E0C9ED0F86C
:102C900018C045688EE87010B0F812C00024CDE965
:102CA0000014CDF808C0B0F90C10B0F91040B0F91C
:102CB0000EC0B0F90A00194410442346624600F0E1
:102CC00003F808B070BD00002DE9FF4F8BB09946A6
:102CD000DDE91885DDE91B6792468B461E9C02F0F4
:102CE000E7FB04F16000444945F48055CDE902104A
:102CF000CDE900854B46524659460B9811F038F9FC
:102D0000040073D001F08AFC30223146049011F0A7
:102D100095F83A4E049A06F1080102F1340E91E852
:102D20000B1F8EE80B1FD6E90A01C2E915011D9899
:102D300050661A98A2F87C004FF00008C2F8808014
:102D4000C2F86C80C2F888807068D06504A801F071
:102D5000CFFC05A9204600F0EAFA294841F2827129
:102D6000CDF80C800094CDE90110BDF91E00BDF92D
:102D70001A10BDF91C20401A431CBDF91800121A84
:102D8000521C11F0F5F8804670684168204688476B
:102D9000204601F043FC0490C0F8688004A801F0CC
:102DA000A7FC42F20400054204BF204611F08CFA51
:102DB00002F07EFB204601F031FC0090006F019094
:102DC000684601F095FC394601A805F0EFFD58B1C1
:102DD000204601F023FC009001990167684601F04C
:102DE00087FC204612F082F804F002FC04F000FC9C
:102DF0000FB02046BDE8F08F452900089C04002054
:102E0000E93600082DE9F041044698B0006800F06A
:102E1000BDF9002814BFDB4DDB4D6068152802BFEB
:102E2000A86A18B0BDE8F08112DC0B282AD007DCB4
:102E3000002800F09281052800F02C8100F09DB957
:102E40000E2800F07781122800F03B8100F095B940
:102E5000162802BFE86918B0BDE8F081172802BF44
:102E6000286A18B0BDE8F081182802BF686A18B057
:102E7000BDE8F0811C2802BF686918B0BDE8F08188
:102E800000F07BB920680E901C200F90206801F0A4
:102E9000C5FB0390016D0EA88847064603A801F004
:102EA00027FC022E11DBD5E90001AA680292CDE9C8
:102EB0000001D4E904023346A16905F05DF82069F8
:102EC0008719A069A0EB06082CE0286804F0F7F841
:102ED0002169E8690844421E606902F027F8A26986
:102EE000E869101A411C606902F020F86069471C0B
:102EF0003946206902F046F83946A06902F042F8E6
:102F0000686804F0DCF820693946401C02F03AF8A1
:102F1000A0693946401E02F035F82069871CA06977
:102F2000A0F10208286804F0CAF8424639466069F0
:102F300001F0FCFF686804F0C2F860694246394657
:102F4000401C01F0F3FF686A02287DDDA86804F0E8
:102F5000B6F860696A6A811C1044431E42463846CE
:102F600002F0DCF86069022EACBF0644861CE06902
:102F7000471E286804F0A3F83A463146206902F05B
:102F800071F83A463146A06902F06CF8E069871E94
:102F9000686804F094F820693A463146401C02F013
:102FA00061F8A0693A463146401E02F05BF8E869D4
:102FB0000228DCBF286A022820DDA86A0228C7BFD1
:102FC000E1690F1AE069871EA86804F078F8E969DA
:102FD000022907DD22693B46901C11444A1E3146F6
:102FE00002F09CF8286A022808DDA169E8698A1EB7
:102FF000081A3B463146401C02F090F8286804F05D
:103000005EF8D4E90620216901F090FF686804F0B9
:1030100056F8A069421E2069411CE069401E01F07B
:1030200085FFA86A02284BDD21698E1CA1698F1ECD
:10303000E169081A441CA1F10208A86804F03FF8ED
:1030400043463A46214600E003E0304602F066F887
:1030500093E0296AB14285DD6069022E00F1020821
:10306000ACBF871947462069ACBF3044801C226939
:103070003B461144A1F10102414602F04FF8A0691C
:10308000022EACBF821B821EE9693B46401A4146B4
:10309000401C65E7208A00B2ADF81800A18A09B289
:1030A000ADF81A10228B12B2ADF81C20A38B1BB204
:1030B000ADF81E30D5E9034CCDE9004C01F02CFEF3
:1030C0005BE0208A298B0844ADF81800A08AADF88F
:1030D0001A00208B298B401AADF81C00A08BADF88C
:1030E0001E00206801F09AFA0390006FF0B10220F0
:1030F00004F07AF8039991F87C00C0F3C00001EB6A
:103100008000006C03F0DBFF0398406B03F0EEFFE0
:103110000398006F01F082FA03990A90B1F95A20DE
:1031200006A901F0CDFD0AA801F0E2FA03A801F01A
:10313000DFFA22E0208AADF81800A08AADF81A0064
:10314000208BADF81C00A08BADF81E00A86803F022
:10315000B6FF06A802F00EF80FE0206801F05EFA54
:103160000390B0F85A1041F00C01A0F85A1003A8CF
:1031700001F0BEFA206812F06FFA18B00020BDE826
:10318000F0810000280600205406002038B5050014
:103190004FF0000410D002F08BF9284601F03EFAFF
:1031A000009090F87C0010F0080F18BF01246846CA
:1031B00001F09EFA04F01CFA204638BD2DE9F041DA
:1031C00082B00E46054602F073F9002D29D028463C
:1031D00001F024FA0190C16D8C6800F04CF90746AB
:1031E0000198466301A801F083FA2268012128466C
:1031F0009047064623680321284698478046226860
:103200000021284690470446284600F032FA4346FB
:10321000324639462846009400F0ACF9284611F0B1
:1032200065FE04F0E5F902B0BDE8F081002808BFB2
:10323000704730B583B00D46044602F039F9204698
:1032400001F0ECF90090006F0190684601F050FA2F
:10325000294601A805F0AAFB58B1204601F0DEF985
:10326000009001990167684601F042FA204611F08A
:103270003DFE04F0BDF903B030BD002808BF704723
:1032800038B50C46054602F013F9284601F0C6F998
:103290000090B0F95A10A14204D0A0F85A40284634
:1032A00011F024FE684601F023FA04F0A1F938BDBC
:1032B0002DE9F04383B00D4606004FF0000432D0F4
:1032C00002F0F6F8304601F0A9F90190B0F9544047
:1032D000A54223D000F0CFF8074601980121A0F8BD
:1032E0005450C06D856830462A68904781462A68E8
:1032F00003213046904780462A6800213046904797
:103300000546304600F0B5F943464A463946304650
:10331000009500F02FF9304611F0E8FD01A801F00A
:10332000E7F904F065F903B02046BDE8F0832DE924
:10333000F04F00278DB00C468146BA4601F06EF979
:103340000190C06D0121856848462A6890478046F3
:103350002A6803214846904707902A680221484678
:10336000904706902A6800214846904706460198F3
:1033700012F066FD0590019812F069FD83460198F0
:1033800090F8321001F02001002918BFB0F958A0C0
:103390004FF0000506D0B0F954501DB9406B01F054
:1033A000E1FF851C0198C06E10B111F06BFA074661
:1033B00025806780A4F8048007990598401A06EBD9
:1033C0000A01401E294420813944E1800699ABEB73
:1033D0000101491E6181A4F80C8020827019E681E8
:1033E000401E608201A801F083F9B4F90C70B4F9B1
:1033F00010604D46484601F011F90690C16DD0F8B5
:10340000008006A8D1F8089001F072F9D9F80020E0
:103410000021284690478146284611F0B1F9050061
:1034200024D001F0FBF80790B0F900200FFA88F1E2
:10343000B0F90430521A5B1AB0F90210A1EB28411E
:1034400049450BD190F8280010F0800F03D0964228
:10345000A8BF561E02E09F42D8BF5F1C07A801F01C
:1034600047F9284611F0B8F90500DAD1A78126827C
:103470000DB0BDE8F08F10B50146002091F8322064
:1034800012F0200F08BF10BDB1F95400002818BF7A
:1034900010BD486B01F066FF801C10BD70B58AB08E
:1034A0000E46044601F0BAF80990C06D856809A877
:1034B00001F01EF90094002E08BF18200BD0012E39
:1034C00008BF162007D0022E08BF152003D0032EF8
:1034D00008BF172000D101906968684688470AB084
:1034E00070BD2DE9F04383B017468846814601F050
:1034F00095F80090C16D056868468C6801F0F8F891
:1035000022680021484690470646484611F038F99F
:10351000040004BF03B0BDE8F08301F07FF8019020
:10352000B0F900102AB2B0F90430891A9A1AB0F929
:103530000230A3EB2543B34211D190F8280010F0DC
:10354000800F05D038688842A4BF481E386006E066
:10355000D8F800009042DCBF501CC8F8000001A859
:1035600001F0C6F8204611F037F90400D5D103B0B8
:10357000BDE8F0832DE9FF4F85B09A4691460F468E
:10358000DDF848B0059801F049F80390C16D8C68EA
:10359000FFF771FF064603A801F0AAF8226801218F
:1035A0000598904702902268032105989047019062
:1035B00022680021059890470546BE4204BF029844
:1035C000484506D10198504502BF5D4509B0BDE8A8
:1035D000F08FF41B0027B846059811F0D1F80600CB
:1035E00004BF09B0BDE8F08F0198A5EB0B05AAEB6D
:1035F000000A0298A0EB0909304601F00FF800908C
:10360000806A10F0800F03D010F4007F06D025E010
:1036100010F4007F22D010F0800F1FD124B1224679
:103620001146304611F07AFD009890F8280010F00D
:10363000800F06D004FB17A12A4630467F1C11F0EC
:103640000AFD0098008D10F4007F07D004FB08915C
:103650002A46304608F1010811F0FDFC684601F0E9
:1036600047F8304611F0B8F80600C5D109B0BDE8FA
:10367000F08F70B586B0064600F0D0FF0590D0E917
:103680001A4505A801F034F854EA050004BF06B055
:1036900070BD69463046FFF74AFEACB1BDF9062061
:1036A000BDF90410204611F0A5FCBDF90A00BDF9D2
:1036B0000610401A421CBDF90800BDF90410401A5A
:1036C000411C204611F0EEFF002D04BF06B070BD76
:1036D000BDF90600BDF90210421ABDF904102846D2
:1036E00011F088FC06B070BD2DE9F0430446406837
:1036F00089B0054611F07DF8814600F08FFF0290F9
:10370000D0F88080876C466E02A800F0F1FF206838
:10371000172862D008DC0E2850D00F2816D01428A5
:1037200018BF152859D052E01E2829D01F283ED096
:10373000222802BFE76009B0BDE8F083312801BF4D
:103740000020E06009B0BDE8F08340E06FF0704019
:10375000874204D0384606F051FD01F069F8002E8A
:1037600004BF09B0BDE8F083D4E902122068CDE9B6
:103770000405CDE9061204A8B04709B0BDE8F083FE
:10378000E068002804BF09B0BDE8F083B8F1000F7D
:1037900018BFA84505D0404611F07CFE09B0BDE831
:1037A000F083284611F0D2FE09B0BDE8F08321462F
:1037B000484610F05CFA09B0BDE8F083E068416863
:1037C000002904DD00680928EBD00A280BD0002E60
:1037D0001CBF2046C4F80490CED1204610F084FCD3
:1037E00009B0BDE8F083284611F0FEFE09B0BDE83F
:1037F000F08300001CB5012180200BF0FFF90020B0
:103800008DF804008DF806008DF8070002208DF871
:103810000500802000906946044800F00FFA00205F
:1038200003498870012048701CBD0000001C024044
:10383000B456002070B58AB06048407808B90AB024
:1038400070BD00F0C1F800B9F9E7012201A902201A
:1038500000F0D6F89DF8040010F0070F0CD158487E
:103860000078012807D10020554908705549087291
:10387000084603F063F8E2E7212201A9002000F0E6
:10388000BFF8002446E004EB44014900491D01AAA9
:10389000515C08110F2800DB3EE004EB44014900B5
:1038A000091D01AA525C04EB44014900C91C01AB8B
:1038B000595C01F00F0142EA0121404A121D22F831
:1038C000141004EB44014900891D01AA525C04EB69
:1038D00044014900491D595C01F00F0142EA0121F0
:1038E000364A0E3222F8141004EB44014900C91C78
:1038F00001AA515C8A1131491D310A5504EB44017A
:103900004900491D01AA515C0A112C4918310A5578
:10391000601CC4B2052CB6DB00BF284800785528CF
:1039200003D026480078A3280DD12448C58986886D
:10393000B5F5F07F01DB40F2DF15B6F5887F21DBBE
:1039400040F20F161EE01D4800780A280DD11B48D2
:103950008588C689B5F5487F01DB40F21F35B6F58D
:10396000F07F0FDB40F2DF160CE014488588C68933
:10397000B5F5487F01DB40F21F35B6F5F07F01DB7E
:1039800040F2DF160E48007860B901200C4908703B
:103990000C480560466001200A490872084602F09A
:1039A000CDFF08E007480560466001200549087220
:1039B000084602F0C3FF00BF41E70000B4560020F4
:1039C000D8010020A45500200448006810F0800FA2
:1039D00001D1012070470020FCE70000101C0240CC
:1039E00008B501226946A32000F00AF89DF80000FE
:1039F000024908709DF8000008BD0000B456002080
:103A00002DE9F04106460D4617461BF00DF97020D2
:103A10001BF0DEF81BF036F9F0B21BF0D9F81BF002
:103A200031F91BF001F971201BF0D2F81BF02AF9D3
:103A3000002406E01BF0AAF828551BF053F8601C80
:103A4000C4B2781EA042F5DC1BF0A0F828551BF08C
:103A500087F81BF003F9BDE8F08100000248807888
:103A6000401C014988707047B45600202DE9FC4184
:103A700007460D46002600240020009001900820F3
:103A80005A49086010204860402088600020C860C3
:103A90004FF48060086108460BF034FF1020FDF7FA
:103AA000D7FC044614B12046BDE8FC81504800888C
:103AB00000044E490860372048604020886000209C
:103AC000C8604FF48060086108460BF01BFF372088
:103AD000FDF7BEFC04460CB12046E5E74FF0FF3091
:103AE0004449086008204860302088600220C8608F
:103AF000002008610120486108460BF05FFE0020AD
:103B00003A49086033204860402088600020C8603F
:103B10004FF48060086108460BF0F4FE3320FDF797
:103B200097FC04460CB12046BEE709E04FF40010B4
:103B30000BF070FE20B10BF0DFFE4DF82600761C76
:103B40002D48006840F22A610842EFD008200BF0AF
:103B500061FE28B108200BF019FE04242046A3E7DB
:103B600002200BF057FE28B102200BF00FFE0224BA
:103B7000204699E720200BF04DFE28B120200BF0C5
:103B800005FE062420468FE74FF400700BF042FE3E
:103B900030B14FF400700BF0F9FD0724204683E7A5
:103BA00040F2FF500BF0F2FD00980006009901F47E
:103BB0007F4140EA0120009901F47F0140EA112091
:103BC000009940EA1160686001980006019901F4CB
:103BD0007F4140EA0120019901F47F0140EA112070
:103BE000019940EA1160286020465DE7783C00209A
:103BF000080000208C3C0020342C014010B500202F
:103C000003F052FA6FF07F4003F059FA012003F0FD
:103C1000CDFA002003F0D8FA002003F0E5FA0020E6
:103C200003F058FA0448006803F060FABDE8104059
:103C3000002003F08DBA0000BC030020F0B50A4656
:103C400000210023002400BF3DE0012505FA01F317
:103C5000156805EA03049C4234D105684F00032629
:103C6000BE40B543056015794E00B5400668354342
:103C700005601579012D02D01579022D16D18568C0
:103C80004F000326BE40B543856055794E00B540D0
:103C9000866835438560456801268E40B54345609A
:103CA000456896798E40B6B235434560C5684F0089
:103CB0000326BE40B543C560D5794E00B540C66801
:103CC0003543C560491C1029BFD3F0BDF0B50023B2
:103CD00000244D07ED0E02FA05F3CE1000F1200589
:103CE00055F826504E07F70E0F26BE40B543CF10AD
:103CF00000F1200646F82750CE1000F1200555F8B7
:103D0000265045EA0304CE1000F1200545F8264070
:103D1000F0BD0246002013690B4201D0012000E0F3
:103D2000002070470AB1018300E041837047000022
:103D300008B50020124948706A22124940F2A26078
:103D400000F0C6F80E488078BA2809D10EA00068A5
:103D500000900422694640F2DD6000F0B9F809E005
:103D60000AA0006800900422694640F2DD6000F07D
:103D7000AFF800BF0020024948700120087008BD5C
:103D80009056002068010020E00120035802000442
:103D90007CB50122694640F2217000F059F89DF887
:103DA000000010F0010F0CD126480078012807D13F
:103DB00000202449087024490872084602F0BEFD1C
:103DC0007CBD05220DF1010140F2227000F040F8A7
:103DD0009DF800001D49C8709DF8010008719DF80C
:103DE00003009DF8021000EB01201849C8809DF8DF
:103DF00005009DF8041000EB0120144908810846D5
:103E00000489C08840F2DF11081A85B20D48007895
:103E100060B901200B4908700B480460456001201F
:103E200009490872084602F089FD08E00648046066
:103E30004560012004490872084602F07FFD00BF7A
:103E4000BEE70000D2010020A455002090560020BB
:103E50002DE9F04105460E4617461AF0E5FE1749D2
:103E600088781AF0B5FE1AF00DFF28121AF0B0FE8D
:103E70001AF008FFE8B21AF0ABFE1AF003FF1AF0CE
:103E8000D3FE0E498978491CC8B21AF0A1FE1AF077
:103E9000F9FE002406E01AF079FE30551AF022FEF1
:103EA000601CC4B2781EA042F5DC1AF06FFE3055DB
:103EB0001AF056FE1AF0D2FEBDE8F08190560020AE
:103EC00002484078401C01494870704790560020D5
:103ED0002DE9F04104460E4617461AF0A5FE0F499B
:103EE00088781AF075FE1AF0CDFE20121AF070FED6
:103EF0001AF0C8FEE0B21AF06BFE1AF0C3FE0025FD
:103F000006E0705D1AF064FE1AF0BCFE681CC5B2D3
:103F1000BD42F6DB1AF0A2FEBDE8F081905600200B
:103F2000014AC2E9000170476C030020014AC2E95E
:103F30000001704774030020014AC2E90001704784
:103F40003C040020014AC2E9000170477C030020C4
:103F5000014AC2E900017047440400202DE9F04FF6
:103F60004B4989B00968B1F922200692D1F81CC0EA
:103F7000B1F92470DCF81C40A28982429CBFE3891D
:103F8000984205D8A0EB02094FF0FF38266812E0EE
:103F9000D4E90162002A71D0138883429CBF5588FE
:103FA000A8426BD8C01A526880B202EB8000B0F908
:103FB0000090B0F90280B9F1FF3F5FD09CF8180083
:103FC000A27C10FB02FB94F810A00790B1F92A50D4
:103FD000284606F075F9C0B208902D4809FB0B621F
:103FE0000068A37C4FF00109816BCDE90293CDE914
:103FF0000421C0695246C17E807ECDE90001DDE921
:104000000603394605F008FBB8F1FF3F18D045F02C
:10401000020006F055F91E48A37C08FB0B620068FD
:10402000816BCDE90293CDE90421C0695246C17E7E
:10403000807ECDE90001DDE90603394605F0ECFAA2
:10404000134E3068C069417E007E814213D9022D33
:1040500011D085F0040006F033F93068C069017EA4
:10406000C27E11FB0271427ED319827E06981AFB32
:10407000020205F0ABFC089806F022F90448627CC5
:104080000068418C1144418409B0BDE8F08F000004
:10409000C0030020044800290068C069C0691CBF33
:1040A000027C0A60407C7047C00300200220088028
:1040B0007047C06982898A429CBFC289914210D9E7
:1040C000806880B102888A429CBF438899420AD89E
:1040D000406800EB8100A0EB8200B0F900000028EE
:1040E00001DB012070470020704700002DE9F043FC
:1040F000394D024687B02868B0F92A60C069C169A5
:104100001046002904BF07B0BDE8F0830B88834246
:104110009CBF4B88984205D989680029F6D107B021
:10412000BDE8F083002904BF07B0BDE8F08348680C
:104130000988511A00EBC1043046A77806F0C0F890
:104140008046286862680123816BCDE90237CDE99A
:104150000421C169CB7E8A7ECDE900230B7EB0F9B4
:1041600024102278B0F9220005F056FA2868C069B8
:10417000417E027E91421FD9C07E11FB00F912FBE5
:1041800000F7022E18D001F092F8064601F058F818
:1041900002F095FF29682278CB69B1F92200DB7E15
:1041A00012FB0302B1F9241001EB0903394405F0B5
:1041B0000DFC304602F083FF404606F081F8286887
:1041C0006278C369B0F922109B7E12FB031141840F
:1041D00007B0BDE8F0830000C003002010B404461F
:1041E00015480068D0F81CC02046DCF81C2002B33B
:1041F000138883429CBF5388984203D99268002A4F
:10420000F6D116E0AAB110885368221A012000EBFB
:10421000C2009CF81AC0185C10FB0CF0002904BF07
:1042200010BC704713F8322012FB0CF20A6010BC6D
:10423000704710BC00207047C00300200120088098
:104240007047C06968B102888A429CBF4288914227
:1042500003D980680028F6D103E000281CBF0120A4
:1042600070470020704700002DE9F047DFF86C80B0
:10427000D8F80860002E22DDD8F810400027DFF8BB
:1042800060A02546B9467022201DDAF80010FCF720
:1042900008F845F8789BD8F81020C7EB071004F110
:1042A0000C0102EBC00078348161011DC163091D5E
:1042B0000164011D4164761E07F10107E3D101F09D
:1042C000F7F8D8F80C00401EC8F80C0018BFBDE87D
:1042D000F087BDE8F04703F0F9B900005805002069
:1042E000C003002070B51A4918480860084604F059
:1042F00055FB184CA068C0EB0010C500284600F024
:10430000FBF82A460021206104F088FB4FF0FF30C3
:10431000206003F0B3F9A06800250028D8BF70BD65
:1043200003F090F92169C5EB051251F83210814272
:1043300008BF70BD21B16D1CA0688542F0DB70BD67
:104340002269C5EB051142F8310070BD8DAD010841
:104350006C05002058050020002808BF704710B5E4
:10436000044601F0A5F8204612F064FA044603F072
:104370003FF9204610BD38B5054601F099F82846AA
:10438000FFF7EAFF040009D000F048F92A460021AF
:10439000009004F043FB684600F0AAF903F028F906
:1043A000204638BD024A106021F00300506070477B
:1043B000FCA20020002808BF704770B5054601F038
:1043C00077F80F4C606B10F83510002918BF0229E0
:1043D00011D2042101EBC5068159486812F0D0F9C9
:1043E0006068401C6060616B606A8851616B00208E
:1043F00001F835006562BDE8704003F0F9B80000CF
:104400003CA20020002808BF7047044AD16B01601D
:10441000002918BF4860D063704700003CA200200C
:104420002DE9F041064601F043F835680027F5B163
:1044300001F03EF8104C606B10F83510002918BFE1
:10444000022912D2042101EBC50850F8081048686F
:1044500012F096F96068401C6060616B606A41F818
:104460000800606B00F83570656203F0C1F83760D2
:10447000BDE8F04103F0BCB83CA200202DE9F05F9C
:10448000B1F1000881464FF00005C6BF194F4FF04B
:10449000000ABDE8F09F00BF09EB850601F008F8AF
:1044A0003468ECB101F004F8786B10F8341000298E
:1044B00018BF022912D2042101EBC40B50F80B10D3
:1044C000486812F05DF97868401C7860796B786A0A
:1044D00041F80B00786B00F834A07C6203F088F898
:1044E000C6F800A003F084F86D1C4545D4DBBDE898
:1044F000F09F00003CA200202DE9F041044615F099
:10450000D9FDE01C274E20F00300051D306CA842A9
:1045100088BF0546F46BBCB154F8041CA94210D105
:104520009CB1206800281CBF616841606068002859
:104530001CBF21680160F16BA14204BF2068F063D9
:104540002DE02468002CE7D10024F168B06B00EB6B
:10455000010858F8040CA8EB0007386840B10020A7
:1045600016F06EFE58F8040CA8EB00073868B0B9D6
:104570007868A84213DB3844401B041D384616F007
:1045800035FEF068401BF0607069284470617868FF
:10459000401B1CBF394612F0F3F844F8045C204677
:1045A000BDE8F0813CA2002010B5002415F082FD8A
:1045B0000D490F2001EBC002526C8AB101EBC00023
:1045C000406C806848B14168A14288BF0C46806851
:1045D00000281CBF80680028F5D1A4F10C0010BD94
:1045E000401EE7D5F9E700003CA20020002140B1C1
:1045F0000549042202EBC000496B08584068A0F14D
:104600000C010846704700003CA200200248816966
:10461000491C8161704700003CA200200949CA6919
:10462000521CCA614A6B02EBC00213785B1C137008
:10463000002808BF7047496B042202EBC0000858ED
:10464000083070473CA2002010B500F031FF002474
:1046500015F030FD194B1A490F2000BF01EBC002C5
:10466000526CE2B101EBC000406C8068C8B1426896
:10467000A24288BF1446806800281CBF80680028BA
:10468000F5D1A4F10C00B0F5800F0DD983FB00200B
:104690004211096AA2EBE07000FB01F409E0401E40
:1046A000DCD5A4F10C00F1E7096A4843A3FB001034
:1046B000440902F09DFF204610BD00001F85EB510C
:1046C0003CA200200549102898BF102004D94A6850
:1046D000B0EB520F28BF500888607047FCA2002042
:1046E00002488169491E8161704700003CA2002098
:1046F0000A4902684B6B52F8082C03EBC20213788C
:10470000022B04D3CB69002B1CBF5B1ECB6111783D
:10471000491E117000210160084670473CA200202C
:10472000002808BF70470449042202EBC000496B0F
:1047300008580830704700003CA200202DE9F043E3
:1047400083B00E46074605F0AFFA054605F0D0FAED
:104750004FF00009C846044605F06EF91828C8BF96
:1047600018202B460094CDE9016042464946384660
:1047700016F00EFE03B0BDE8F083000070B51446DD
:104780000D46064600F094FE204600F09DFD030015
:10479000164804EB840109D050F821004168806874
:1047A000711A2A1A184602F0C3FC1AE000EB8104C1
:1047B000A268B24214BF01220022E368AB4214BFD8
:1047C000012300231A430CD0236943B150F8210080
:1047D000816840686A1A311A184602F07BF9C4E908
:1047E0000265BDE8704002F003BF000078A400201D
:1047F000C2B2CBB2D21A48BF524292B202FB02F30B
:10480000C0F30722C1F3072CB2EB0C0248BF52429F
:1048100092B2000CA0EB114002FB023200B2002861
:10482000BCBF404200B280B200FB002070470000D5
:104830002DE9F041002182B0084600F0A9FD43F6C1
:10484000FF76374600F034FE042005F039FD80463F
:104850001248C068C16C006D8D1B841B0E44074458
:10486000ADF80050ADF80460ADF80240ADF8067048
:10487000684611F0F3FA48B13B46324621462846D5
:1048800005F0A4F811F014F90028F5D1404605F020
:1048900017FD02F0ADFE02B0BDE8F081B4030020C8
:1048A0002DE9F8431C00DDE9089816460F46054639
:1048B00002D10FF027FF04460096D5F800C043460A
:1048C0004A4621462846E047060008BFBDE8F8836F
:1048D0000FF00CFF8146698A30460FF093FA30469C
:1048E00010F060FF484610F05DFF7F1E002FC8BF2C
:1048F0004FF000080FDD00BFCDF8008055F81CCF49
:1049000000231A4649462846E04718B310F04AFFEC
:104910007F1E002FF0DC1D21484610F017FDB4F17A
:10492000FF3F14D000F0C4FD0FF038FF40B100BFCE
:10493000FFF7F6FE8469B44218BF5FEA0400F7D1BE
:10494000B4421CBF304610F001FE02F051FE30466A
:10495000BDE8F88330460FF0EBFB0020BDE8F8839C
:10496000022BA4BF002070472DE9F04106461C46EB
:1049700015460F461C20FFF7BFFD002808BFBDE805
:10498000F081002F18BF07610BD10A4A52F824109A
:1049900039B10A681AB111461268002AFBD10969B7
:1049A000016184618582002101604160C0E90216D5
:1049B000BDE8F081D80300202DE9F04100241D4618
:1049C000074688461646022B27DA1C20FFF794FD7F
:1049D00018B3B8F1000F18BFC0F810800BD1104AFF
:1049E00052F8251039B10A681AB111461268002A26
:1049F000FBD1096901618561868204604460C0E978
:104A00000247040009D000F011F8E068006820B9FE
:104A10000448006800EB850084652046BDE8F0810D
:104A2000D8030020C0030020FFF7ECBC00281CBF07
:104A30008269022AA4BF0120704710B4244C54F8A4
:104A40002210002908BF44F822003AD04B682BB14D
:104A500019465B68002BFBD1002935D0C3681B6861
:104A6000D1F80CC0DCF800C09C4503DD09680029C2
:104A7000F6D129E041B3D1F80CC0DCF800C09C4568
:104A800004BFB0F814C0BCF1010F0DD1D1F800C0C3
:104A9000BCF1000F07D06146DCF80CC0DCF800C0A8
:104AA0009C45F3DA00E079B14B68002B1DBF18601C
:104AB0004A68426044F822004860884208BF0021EA
:104AC000016010BC0020704710BC0120704700003E
:104AD000D8030020002808BF704730B4214C00BF25
:104AE000D0F800C000281CBF8569022D35DA54F8C3
:104AF0002510002908BF44F825002ED04A6822B1AD
:104B000011465268002AFBD139B3C2681368CA68DB
:104B100012689A4203DD09680029F8D11DE0E1B16D
:104B2000CA6812689A4204BF828A012A08D10A68B8
:104B30002AB11146D26812689A42F8DA00E061B1EF
:104B40004A68002A1DBF10604A68426044F8250088
:104B50004860884208BF002101605FEA0C00BFD1B5
:104B600030BC7047D80300200B4A816952F82130CD
:104B7000834204BF036842F82130416800291CBF0A
:104B800002680A60016800291CBF42684A6000216F
:104B90000160416070470000D803002070B400201D
:104BA000144DDFF854C002464FEA00045CF82210AE
:104BB000D9B1CB681B68EB5CA3B18B695CF823604F
:104BC0008E4204BF0E684CF823604B68002B1CBF5C
:104BD0000E681E600B68002B1CBF4E685E60C1E94A
:104BE0000004084609680029E3D1521C022ADDDBD3
:104BF00070BC704768F50108D80300200228A4BFE4
:104C000000207047064951F82000002808BF70476F
:104C1000C168096800291CBF00680028F8D17047E6
:104C2000D8030020002808BF70472DE9F8431E462E
:104C3000174688460446FFF7F1FC009000680568B7
:104C40006846FFF755FD33463A4641462046A84799
:104C5000BDE8F8832DE9F041044602F0FBFC06199B
:104C6000164F1DE000F028FAB8F1050FC8BF4FF04D
:104C7000050800F01DFC3C68FFF7C8FC250018D0B3
:104C800002F0B6FC6D1EFBD1404602F0CDFC1CB11B
:104C900000F00EFC641EFBD1FFF722FD02F0A8FC21
:104CA00002F0D8FCA6EB0008B8F1000FDADCBDE892
:104CB000F081404602F0B8FCEEE7000064050020F9
:104CC0002DE9F04182B006000D46174647F6FF7801
:104CD0004FF0000404BF02B0BDE8F08100F0E8FB33
:104CE00065B1284610F004FD040007D002462946AD
:104CF000684603F00AFD684610F0FAFC43463A465F
:104D00002946304602F076FF204610F0F1FC02F012
:104D10006FFC02B0BDE8F0812DE9FF4FA1B01E4647
:104D200017468846044600F0C3FB7E48D0F800C012
:104D3000DCF84C5028192190DCF8501001EB0800E9
:104D40002290E8192390881924902198ADF85000FA
:104D50002398ADF854002298ADF852002498ADF88D
:104D6000560014A811F07AF8002800F0D580229996
:104D70002498401A1C902E98C0F307201B902E9860
:104D8000C0F307401A902E98000E19902F98C0F388
:104D9000072018902F98C0F3074017902F98000E07
:104DA000169021980390DDE922800190DDE92E45DF
:104DB0005D4807900120249E1D9000F078FA139022
:104DC000AC4207D1204605F053FA33464146019ADA
:104DD00003988AE01C98401C01280CBF4FF0010981
:104DE000A0F10109E0B20E901B9808900DF1580E49
:104DF00001279EE80E0C204605F0FF0C4446B04506
:104E00006CDC0E9DA2EB0B02ACEB050CCDF844C0A4
:104E1000DDF820C0A1EB0A01A3EB0C030C92CDE955
:104E20000F3100BF119AA4EB08014A4392FBF9F33A
:104E30000E9A109D1A4402F0FF0C0F9A4A4392FBFF
:104E4000F9F3089A1A44D3B20C9A4CEA03234A4362
:104E500092FBF9F2694391FBF9F15A44D2B2514401
:104E600043EA024242EA0165444522DD854208BF29
:104E70007F1C1ED005F0FCF91D98012F0DDD0028C8
:104E80001FBFE11B631E019A039801BFE01B621E56
:104E9000019B039904F09AFD0AE0019A20B1079B57
:104EA000611E0398984703E0079B601E039998478B
:104EB0000127641C2846B442B4DD05F0D9F91D99D8
:104EC0003046012F14DD0029A0EB070109D033463D
:104ED000491C019A039804F079FD14E005F0C8F923
:104EE00007E0481C3246019B039904F06FFD0AE07D
:104EF00029B1079B3146019A0398984703E0079B25
:104F0000019A03999847139805F0B2F910F0D0FD73
:104F100000287FF446AF00BF02F06AFB25B0BDE871
:104F2000F08F0000C003002095980008F0B583B012
:104F300015460E46074600F0BBFA114C2168C86CB6
:104F4000096D064405440F44ADF80060ADF8045007
:104F5000ADF80270ADF80670684610F07FFF50B1F2
:104F600020682A463946406E03683046984710F05C
:104F70009FFD0028F4D102F03BFB03B0F0BD000020
:104F8000C003002070B582B00D46064600F090FACE
:104F90000F4C2068C16C006D0E440544ADF80460F0
:104FA000ADF80060ADF80650ADF80250684610F05C
:104FB00055FF48B120682946406E42683046904708
:104FC00010F076FD0028F5D102F012FB02B070BDA2
:104FD000C00300202DE9F04182B0984617460D46E7
:104FE000064600F065FA1E480468207E216DA0F197
:104FF000010CE06C0D4406440744A6EB0C00ADF830
:10500000000007EB0C00ADF80400A5EB0C0001EB71
:105010000804ADF8020004EB0C00ADF80600684689
:1050200010F01CFFB8B13A462946304604F032FC75
:105030003A462146304604F02DFC621E691C30467B
:1050400004F092FC621E691C384604F08DFC10F0DE
:105050002FFD0028E7D102F0CBFA02B0BDE8F081C5
:10506000C003002070B582B014460D46064600F01D
:105070001FFA10480068C16C006D0E4405440444DA
:10508000ADF80060ADF80460ADF80250ADF8064030
:10509000684610F0E3FE40B122462946304604F04F
:1050A00063FC10F005FD0028F6D102F0A1FA02B071
:1050B00070BD0000C00300202DE9F041154D002710
:1050C0003C46286818B18047002818BF01240FF01B
:1050D0000FF9002818BF01240F4E306808B180472F
:1050E00000B99CB101272868002418B18047002826
:1050F00018BF01240FF0FCF8002818BF0124306805
:1051000010B180470028EDD1002CEBD13846BDE826
:10511000F0810000E4030020E0030020F0B583B03C
:105120001C4615460E46074600F0C2F910480168B5
:10513000C86C096D074405440E440C44ADF800707A
:10514000ADF80450ADF80260ADF80640684610F0C6
:1051500085FE48B123462A463146384604F036FCDF
:1051600010F0A6FC0028F5D102F042FA03B0F0BD21
:10517000C0030020B0F90630B0F90420B0F90210E5
:10518000B0F90000FFF7CABF002808BF7047B0F8A9
:1051900006C083888068BCF1080F02BF02FB0311C0
:1051A000405C704709DCBCF1010F0ED0BCF1020F6E
:1051B00017D0BCF1040F21D005E0BCF1100F28D0AE
:1051C000BCF1200F2BD0002070475A4302EBD102D4
:1051D00001F00701805CC1F10701C84000F0010047
:1051E00070475A4302EB9102805C062202EA4101B9
:1051F000C1F10601C84000F0030070475A4302EBBA
:10520000510211F0010F805C14BF00F00F00000983
:1052100070475B0802FB031130F8110070479B08D0
:1052200002FB031150F8210070470000034951F8B8
:105230002000C1688A6A082110470000D8030020B6
:1052400010B500F035F904F01BFC04F0D1FD044664
:1052500002F0CEF9204610BD10B5044600F028F942
:10526000054920460968C9694A68002190470446F3
:1052700002F0BEF9204610BDC003002070B50C46F8
:10528000054600F015F9064A214628461268D269FB
:1052900052689047044602F0ABF9204670BD00000A
:1052A000C0030020002808BF70470FF0FBB910B5FD
:1052B00000F0FEF804F0ECFB04F09AFD044602F066
:1052C00097F9204610BD0000002102283CBF02498A
:1052D00051F82010084670473404002010B500F043
:1052E000E7F803480068047C02F082F9204610BD0C
:1052F000C003002010B500F0DBF804480068C06966
:10530000447E02F075F9204610BD0000C003002065
:1053100070B514460D46064600F0CAF822462946E6
:10532000304604F063FC10B1002028602060BDE826
:10533000704002F05DB9000070B50C46054600F003
:10534000B7F80648B0F9000028600548B0F9000039
:105350002060BDE8704002F04BB90000000400205E
:1053600002040020017EC07E11FB00F070470000A7
:10537000024951F82000006900687047D8030020F6
:10538000024951F82000006940687047D8030020A6
:1053900070B50C46054600F08BF8044801684D8452
:1053A00000258C8402F024F9284670BDC00300203B
:1053B00010B5044600F07CF8204604F019FD0446C0
:1053C00002F016F9204610BD70B52F48016821F093
:1053D000010101602D48012686602D4901600068A9
:1053E0002C49884200D0FEE72B4DA86970B9AE6108
:1053F00002F008F9FEF776FF04F0FEFF05F11C014C
:105400002648086008466969416068612E20287056
:1054100002F026F9E868224C011DC0E90E01006483
:10542000091D6161417C1F4850F82100C1680A6B69
:1054300004F1080190471C486066A868E061E868CC
:105440000830606126760FF05DF9A064032084F8CF
:1054500068006FF0704020636063002004F0CEFEAF
:105460006FF07F4004F004FF1048286118F0F6FC4C
:1054700004460021084601F079FE0FF05BFCFEF7C0
:10548000F3FE204670BD0000002000E00030024026
:10549000C2A507F4CDB5E8B5B403002025AD0108D9
:1054A00008A30020D803002060F50108700C020852
:1054B00070B5234CE06820B102F0C4F861688842FE
:1054C00004D002F0F7F802F0BDF86060E068401C1C
:1054D000E060012818BF70BD0025A06800280DDD20
:1054E00002F0B0F82269C5EB051152F83110814283
:1054F00005D0F9B1A0686D1C8542F1DB002520685C
:10550000854208BF70BD002812DBFFF747FB21680A
:10551000C1EB0112216901EBC2025067C5EB051016
:10552000084A01EBC000011D1160406FFFF7D2FA7D
:10553000256070BDC5EB051142F83100DFE70000C2
:1055400058050020C003002010B582B0040006D129
:105550000F480068046E002C04BF02B010BDFFF7B6
:10556000A7FF2046FFF75AF8009044696846FFF706
:10557000BFF84CB12046FFF751F801908168896867
:10558000884701A8FFF7B4F802F032F802B010BD66
:10559000C003002001490A4600F002B801F0FFFFF5
:1055A000002808BF70472DE9F04786B016460C4624
:1055B0008146FFF77DFF002001F08CFD314D8046D4
:1055C0002868076E4846FFF729F800900068806950
:1055D00001F052FD824640F6FF70C44204D10098AB
:1055E000B0F90440B0F906600098621E0189ADF878
:1055F00008401144ADF80C104089711E0844ADF804
:105600000A60ADF80E000EF021FC6846FFF770F856
:1056100002A810F023FC40B132462146484600F073
:1056200063FC10F045FA0028F6D1504601F024FD45
:105630003C46FFF73DFF2868006EFCB1002818BF0C
:1056400001F00CFD0EF040FD2046FEF7E7FF019053
:1056500029680C660068FFF7E9F901A8FFF748F828
:1056600004F0B8FE04F0F6FD01F0C2FF404601F080
:1056700031FD01F0BDFF06B0BDE8F08701F0EEFCA2
:10568000F2E70000C00300202DE9F04F83B01F4671
:105690009046894682464FF0000B0C9EFFF708FFAC
:1056A00019480068417C194850F82140E0680068BA
:1056B000042803D02468002CF8D100E01CB9084667
:1056C000FFF79CFA04460121E068C26A2046904731
:1056D000050012D02469A0688047B0F1FF3F04BFE5
:1056E0000B4C46F001063B460096CDE9015442467C
:1056F0004946504600F082FA834601F079FF03B034
:105700005846BDE8F08F0000C0030020D8030020F9
:10571000A01D0208002808BF704738B50446FFF7EF
:10572000C7FE0E480068006EA04208BF01F096FC5C
:105730002046FEF773FF00904069002818BF01F073
:105740003FFF00980068FFF76FF96846FEF7D0FF4B
:105750002046FEF72FFE01F04BFF38BDC0030020AE
:105760002DE9FF4F0546494883B09A460068DDF8A9
:1057700040B08946447C464800570128204606DD53
:1057800004F0A6FA0746204604F0C6FA05E004F045
:1057900052FA0746204604F077FA04462DB302A9D0
:1057A00001A8FFF7C9FDB5F90080B8F1000FB8BF37
:1057B0004FF00008B5F90260002EB8BF0026B5F919
:1057C0000400019939444A1E9042D8BF0246B5F9F7
:1057D000061002982044401E8142D8BF0846A2EB22
:1057E00008014A1C801B441C03E04FF00008464699
:1057F0003A46BAF1000F08BFC4F1000A002ACFBF31
:10580000002C002007B0BDE8F08F534631464046DB
:10581000CDF800B0FFF738FF5FEA000A2FD000F0A4
:1058200067F80746504600F057F9DFF868B00025E2
:10583000611BB942BCBF504600F030F93DB172194E
:105840004146504600F070F95046FFF77DFE05983E
:10585000C847DBF8001000291CBF002088475046CD
:10586000FFF798FE3D44A542E2DB5046FFF752FFAA
:10587000002000F031F907B00020BDE8F08F059856
:10588000C84707B00120BDE8F08F0000C00300202A
:10589000F80300208005002038B505004FF0000413
:1058A00011D0FFF705FE2846FEF7B8FE009000680D
:1058B00000698068804704F0F7FF04466846FEF7F9
:1058C00017FF01F095FE204638BD38B5040008BF2B
:1058D00038BDFFF7EDFD2046FEF7A0FE00F11804ED
:1058E00000906846FEF704FF01F082FE204638BDB6
:1058F00038B504460025FFF7DBFD1CB908480068F1
:10590000046E44B12046FEF789FE0090B0F90A50BB
:105910006846FEF7EDFE01F06BFE284638BD00003C
:10592000C00300202DE9F04F85B080464FF0000AFB
:105930004046FEF773FE0390D0E90095D0F824B0FE
:1059400003A8FEF7D5FE28B20FFA89F7C01B441C46
:105950004FEA2946C6EB2540451C002CCCBF002D44
:105960000AF1010A7EDDBBF1000F16D05846FEF7A2
:1059700055FE0490B0F90440B0F9065004A8FEF7B3
:10598000B7FE0FFA89F0A04208BFAE425AD03246A5
:105990003946584600F0C8F854E00EF0B3FE804592
:1059A00011D104F081F9814604F0A2F94C45D8BF29
:1059B000854208DD4C4562DC854262DC2A46214690
:1059C00040460FF06FFE314901202F4ACDE900011A
:1059D0000292314638462B46224600F00FF9064621
:1059E0004046FEF71BFE03904662BEB3816A41F457
:1059F0008031816203A8FEF77BFE304600F06CF830
:105A00000746012001F07AFE3046FFF75EFF04FBF7
:105A100005F18A001E49097803F000F81D4D1E4C5F
:105A20004046C5F8008026680EF0F0FE2060404633
:105A300010F07AFC00202660286001F05FFE3846F6
:105A400000F04AF84046FEF76BFE406A0AF1010A90
:105A500040B105B0BDE8F04F00F09EB803A8FEF7D6
:105A600047FE00E004E0404610F05EFC0AF1010A47
:105A7000BAF1050FFFF65CAF05B0BDE8F08F4C46FC
:105A80009AE705469AE70000A01D0208F8250208DB
:105A900084050020F8040020F403002038B50C46EB
:105AA000050005D10B480068056E002D08BF38BD04
:105AB000FFF7FEFC2846FEF7B1FD0090B0F90A1092
:105AC000A142B8BF0C4644816846FEF711FE01F0C2
:105AD0008FFD38BDC0030020F8B50446FFF7E8FC91
