:020000040800F2
:10000000C8090020192D0208512D0208532D02089D
:10001000812D0208832D0208852D020800000000B2
:10002000000000000000000000000000B9340208D9
:10003000872D020800000000BDC10008F7960008E7
:10004000BD340208C1340208C5340208C9340208AC
:10005000CD340208D1340208D5340208D93402085C
:10006000DD340208E1340208E5340208E93402080C
:10007000ED340208F1340208F5340208F9340208BC
:10008000FD34020801350208053502080935020869
:100090000D35020811350208153502081935020818
:1000A0001D350208213502082535020829350208C8
:1000B0002D35020831350208353502083935020878
:1000C0003D35020841350208453502084935020828
:1000D0004D350208F5CE00085135020855350208A5
:1000E000593502085D350208613502086535020898
:1000F000693502086D350208713502087535020848
:1001000079350208713001087D3502088135020811
:1001100085350208893502088D35020891350208B7
:1001200095350208993502089D3502087930010895
:10013000A1350208A5350208A9350208AD35020827
:10014000B1350208B5350208B9350208593302083D
:10015000BD350208C1350208C5350208C935020897
:10016000CD350208D1350208D5350208D935020847
:10017000DD350208E1350208E5350208E9350208F7
:10018000ED350208F1350208F5350208F9350208A7
:10019000FD35020801360208053602080936020854
:1001A000976400080D3602088D64000830B50446D7
:1001B000DFF8F00A0568696C83B021B9204601F0C8
:1001C00065FE03B030BD01A8082201F079FEDFF81A
:1001D000D80AC06D00B9A86C02F041FB0090B0F9DC
:1001E0000220B0F9001001A802F010FC00A802F0F3
:1001F00047FB214601A802F017FC01A801F046FECA
:1002000003B030BD2DE9F04107460E4686B090465A
:10021000304602F01CFB806AC0034CBF4FF480459F
:100220002025002E00F0A680304602F018FB019039
:10023000846AA00740F19B80019A394604A802F025
:1002400013FC002800F0938040F6010707EA040041
:10025000012809D10198026A81692B4604A800F09F
:10026000FDF90198C66957E0304602F0F0FA0090B7
:10027000806A810746D5BDF91410BDF9102091425E
:10028000A2BFBDF91610BDF9122091423ADB3840E9
:10029000012837D0304602F0E2FA0090024604A965
:1002A00002A802F0E1FBBDF90C00BDF9081088427C
:1002B000A2BFBDF90E00BDF90A1088421FDB0098ED
:1002C000806A44F22001084207D0009800F108013A
:1002D00002AA083002F0F8FB11E00098083002A9E9
:1002E000082201F0EDFD00980099806A2843886299
:1002F000DFF8B409818E491C818602F021FC00A838
:1003000002F0BEFA0198C66906E000A802F0B8FA49
:10031000304602F09CFA066A4EB3464527D0304676
:1003200002F09DFA009090F828008007EDD5009A21
:1003300004A902A802F098FB0028E6D000A802F069
:100340009FFA2A4602A9304600F017F8304602F01C
:1003500001FC0700DCD02A4602A9384600F04CF91F
:10036000384602F074FA076A002FF4D1D0E701A8EA
:1003700002F086FA06B0BDE8F08170B584B006469A
:100380000C46154602F063FA0090806A810748D552
:10039000B4F90410B4F900209142A2BFB4F90610D8
:1003A000B4F9022091423CDB40F6010108400128EB
:1003B00037D0304602F053FA00900246214601A899
:1003C00002F052FBBDF90800BDF904108842A2BF3B
:1003D000BDF90A00BDF9061088421FDB0098806A4B
:1003E00044F22001084207D0009800F1080101AA58
:1003F000083002F069FB11E00098083001A90822DA
:1004000001F05EFD00980099806A28438862DFF859
:100410009808818E491C818602F092FB00A802F0A8
:100420002FFA04B070BD0000DFF8780810B500683E
:10043000DFF8744890F8541084B029B104F1080032
:10044000FFF7B4FE04B010BD806C02F008FA019012
:1004500002A80199082201F033FD01A802F010FA68
:10046000E46DC4B102E000BF02F00AFA204602F0D7
:10047000F6F9009090F82800800701D400A808E061
:10048000009902A802F0D0FA00988469002C00A814
:10049000EAD102F0F5F902A8FFF788FE04B010BD1A
:1004A00070B50D0084B004464DD002F0D8F901902B
:1004B00000200199086201988561284602F0CFF971
:1004C0000290019890F8280000F008050298C6698B
:1004D0002EB9C46101A802F0D3F902A831E0304678
:1004E00002F0BDF900907DB990F8280000070BD507
:1004F000019806620298C46101A802F0C1F902A83D
:1005000002F0BEF900A81CE002A802F0B9F900A8A8
:1005100002F0B6F9304602F09AF900900098066AA7
:100520000EB904620CE0304602F091F9002DF4D1CE
:1005300090F828100907F0D5009804620198066227
:1005400001A802F09DF904B070BD70B5044602F038
:100550007EF90546A869A0B102F079F90646F1696D
:10056000A14205D1084602F072F9006AF06170BD3F
:1005700039B1084602F06BF9016AA142F8D1296A43
:10058000016270BD10B50446DFF81C07C06B02E0C5
:1005900002F05DF9406910B1A042F9D1012010BD0F
:1005A00010B5040082B025D002F059F9009090F8FF
:1005B000280080071BD50098406A00281EBFDFF87E
:1005C000AC180968A14204D002F096FB0099002003
:1005D0004862204602F0BEFA040008D02046FFF729
:1005E000DFFF204602F033F9046A002CF6D100A8A0
:1005F00002F046F902B010BD70B5040084B00D469B
:10060000164629D002F02BF9009090F828008007B8
:1006100005D5009A294601A802F026FA20B900A8BB
:1006200002F02EF904B070BD00A802F029F932469C
:1006300001A92046FFF7A1FE204602F08BFA040034
:100640000AD0324601A92046FFF7D6FF204602F025
:10065000FEF8046A002CF4D104B070BD2DE9F0411D
:100660000F0086B006461446984659D0384602F028
:10067000F6F80090856AA8074FD5009A314602A87F
:1006800002F0F2F9002848D040F601002840012885
:1006900009D10098026A8169434602A8FFF7DEFF8C
:1006A0000098C6690EE0424602A93846FFF765FE8B
:1006B0000098C66906E001A802F0E2F8304602F0B0
:1006C000C6F8066A4EB3A64227D0304602F0C7F8F5
:1006D000019090F828008007EDD5019A02A904A89E
:1006E00002F0C2F90028E6D001A802F0C9F842469B
:1006F00004A93046FFF741FE304602F02BFA07000E
:10070000DCD0424604A93846FFF776FF384602F0AF
:100710009EF8076A002FF4D1D0E700A802F0B0F8E5
:1007200006B0BDE8F081F0B50D0087B0064614466E
:1007300000F0A780284602F092F80190876AB80777
:1007400040F19C80019A314604A802F08DF90028FE
:1007500000F0948040F6010606EA0700012809D15E
:100760000198026A8169202304A8FFF777FF0198A6
:10077000C56958E0284602F06AF80090806A81074F
:1007800047D5BDF91410BDF910209142A2BFBDF9A3
:100790001610BDF9122091423BDB3040012838D0C1
:1007A000284602F05CF80090024604A902A802F074
:1007B0005BF9BDF90C00BDF908108842A2BFBDF974
:1007C0000E00BDF90A10884220DB0098806A44F2CE
:1007D0002001084207D0009800F1080102AA083061
:1007E00002F072F912E00098083002A9082201F024
:1007F00067FB00980099806A40F020008862DFF86B
:10080000A804818E491C818602F09AF900A802F0A2
:1008100037F80198C56906E000A802F031F82846CB
:1008200002F015F8056A4DB3A54227D0284602F01C
:1008300016F8009090F828008007EDD5009A04A9DA
:1008400002A802F011F90028E6D000A802F018F87A
:10085000202202A92846FFF790FD284602F07AF9E7
:100860000600DCD0202202A93046FFF7C5FE304644
:1008700001F0EDFF066A002EF4D1D0E701A801F0E7
:10088000FFFF07B0F0BD70B5060084B00C461546FA
:100890004ED0304601F0E3FF0090866AB00740D5A5
:1008A0002DB100992A4601A802F0DEF804E0009973
:1008B00001A8082201F004FB01A9204602F0FAFA7F
:1008C00078B3F0071FD40098B0F90200002D04D0CF
:1008D000B5F902108142A8BF0846B4F9021081425E
:1008E00009DABDF90600B4F90620411E914218DA72
:1008F000401EE08015E0BDF90A00B4F906108842F8
:100900000FDAE0800DE00098C66956B101AA2146D1
:100910003046FFF7B8FF304601F099FF066A002E17
:10092000F4D10098066A00A801F0AAFF002EB0D109
:1009300004B070BDF0B507460026002F83B00C460A
:10094000154636D0384601F08AFF0090876AB8070E
:1009500028D52DB100992A4601A802F085F804E0B7
:10096000009901A8082201F0ABFA01A9204602F083
:10097000A1FAB8B1F80705D4BDF80800401C2080E2
:1009800001260FE00098C76967B101AA21463846E1
:10099000FFF7D0FF00B10126384601F058FF076A83
:1009A000002FF2D10098076A00A801F069FF002F1C
:1009B000C8D1304603B0F0BD70B5060084B00C4617
:1009C000154633D0304601F04AFF0090866AB007E2
:1009D00025D52DB100992A4601A802F045F804E07A
:1009E000009901A8082201F06BFA01A9204602F043
:1009F00061FAA0B1F00704D4BDF80400401EA08045
:100A00000DE00098C66956B101AA21463046FFF7AD
:100A1000D3FF304601F01BFF066A002EF4D1009888
:100A2000066A00A801F02CFF002ECBD104B070BDE7
:100A300030B5040081B00D460AD002F082FA294692
:100A4000204602F02DFB01B0BDE8304002F071BA43
:100A500001B030BD00B585B00091019000A902F051
:100A60001FFB05B000BD00224A800A8003888288EF
:100A7000D21A8A80C2884088101AC880704770B520
:100A8000040086B00E465FD002F05BFA204601F00B
:100A9000E6FE0090856AA80751D5009902A80822B1
:100AA00001F00EFAE80344BF2046FFF779FD86B156
:100AB00004A83146082201F003FA0098B0F9022098
:100AC000B0F9001004A801F0A1FF04A902A801F0E8
:100AD000ABFF264603E0064601A801F0D1FE3046F2
:100AE00001F0BDFE019090F82800800703D401A812
:100AF00001F0C6FE23E0019902A801F095FF0198DC
:100B000080690028E7D101A801F0BAFE6648816932
:100B10008E421CBFC069864211D140F601002840B8
:100B2000012807D10098026A8169202302A8FFF7F3
:100B300095FD04E0202202A92046FFF71EFC00A834
:100B400001F09EFE02F0F5F906B070BD002196E7B7
:100B50002DE9F04F87B00746884691469A4602F045
:100B6000F0F9514C1198E16C109E41EA00053EB934
:100B7000608E58B34B480068407C04EB8000866967
:100B800016F1010F08BF002620D0FEB1304601F05B
:100B900066FE01900199B0F90000B1F90210C71981
:100BA000B9F1000F884405D1019AB2F90420101A56
:100BB00000F10109BAF1000F05D10198B0F9060062
:100BC000401A00F1010A01A801F05AFE13982C30D6
:100BD00002F086FA5FEA000B5ED0608E401C6086F1
:100BE000584601F03CFE009007800098A0F8028073
:100BF00009EB07000099401E88800AEB0800009965
:100C0000401EC880009912980861DFF8F01A009819
:100C1000806A294008430099886200A801F030FEEC
:100C2000E06B50B101F013FE0746584601F00FFE8D
:100C300079694161C7F814B001E0C4F83CB03146AD
:100C40005846FFF72DFCA80644BF584600F0D8F8D8
:100C5000E80702D5A06D401CA065680644BF584651
:100C600002F057FAA8070FD5584601F0F8FD00909A
:100C70000099806A40F00200886200A801F000FE3E
:100C800000215846FFF7FBFE01200290CDF80CB082
:100C900002A9584602F004FA02F04BF9584607B090
:100CA000BDE8F08F80020020C89D0020F0B5040050
:100CB00087B000F0918002F044F9DFF8FC5CE86B4B
:100CC00003E000BF01F0C3FD4069002800F082800E
:100CD000A042F7D12046074601F0B9FD80690028FF
:100CE000F9D1A869002687421FBF0126E86987421B
:100CF0004FF0FF360B200290039402A9204602F029
:100D0000CFF9204602F052FA204601F0A8FD0190EA
:100D1000406A08B101F0F0FF00206866A86B05EB9F
:100D20008000816AA14204BF00218162016AA14260
:100D300004BF00210162286C38B14168A14204BFA0
:100D40000021416000680028F7D10721204602F009
:100D500069FA019FF869FFF7A9FFF8690028F9D13E
:100D6000204601F07CFD0090816949B1026A202390
:100D7000FFF774FC2046FFF7E8FB0099002088612C
:100D800000A801F07DFDE86B50B101F060FD074661
:100D90007869A042F8D1204601F059FD4069786198
:100DA0000198806AC10702D5A96D491EA965800610
:100DB00002D5A88E401EA88601A801F061FD688EAC
:100DC000401E6886204601F0D5FD05EB860080694F
:100DD00000F016F802F0ADF807B0F0BD10B504460B
:100DE00001F035FD80690028F9D1DFF8CC1B8A6954
:100DF00094421FBF0120C9698C424FF0FF3010BDE3
:100E0000F0B581B0064602F09CF8DFF8F44820689F
:100E1000856C16B9DFF8A01BCE6B8664304607469A
:100E200001F015FD80690028F9D1DFF88C1B8A6973
:100E300097421DBF0120C9698F4202F018FA02F0E3
:100E40005BFD304601F003FD2168B0F90020CA6463
:100E5000B0F90200086502F06CF8284601B0F0BD58
:100E6000DFF89C080068806C704700007CA40020BC
:100E70002DE9F041DFF8408B86B0D8E90201CDE9D9
:100E80000101D8F8100030B9B8F80000ADF804003E
:100E9000B8F8020015E0B8F80C00401CADF80400EA
:100EA000B8F80A00BDF90410ADF80600B8F904005E
:100EB000884208DAB8F80000ADF80400B8F80E006F
:100EC000401CADF80600B8F90600BDF906108842CE
:100ED000C0F26881DFF828582868806C01F0BFFCF8
:100EE0000590B8F90010BDF9040088425CD1B8F84B
:100EF0000600ADF80A00B8F80400ADF8080028684C
:100F0000806C002800F04A8001F0A1FC0646376A98
:100F1000002F40D0384601F0A2FC0090876AB80745
:100F200032D5009903A8082200F0CAFF03A901A83E
:100F300001F0C0FF40B3F80718D4009ABDF90610BD
:100F4000B2F90220BDF90A00914208DABDF90E108B
:100F50004A1E824218DA481EADF80A0014E0BDF9B4
:100F60001210814210DAADF80A100DE00098C7693E
:100F700057B103AA01A93846FFF785FC384601F0AE
:100F800066FC076A002FF4D10098076A00A801F0F8
:100F900077FC002FBED1B0690028B5D10598C06993
:100FA000002201A9FFF76FFCBDF80400ADF80800AE
:100FB0002868806C18E00098C46964B103AA01A98C
:100FC0002046FFF7B7FC00B10127204601F03FFCA7
:100FD000046A002CF2D10098046A00A801F050FCC9
:100FE00054B9002FE0D1B06908B301F030FC0646D7
:100FF0000027346A002CF6D0204601F030FC009027
:10100000846AA007E7D5009903A8082200F058FFDA
:1010100003A901A801F04EFF0028DCD0E007CAD4E4
:10102000BDF81000401CADF804000127D3E7059877
:10103000C769002697B3384601F011FC0090876A13
:10104000B80722D5009903A8082200F039FF03A9A8
:1010500001A801F02FFFC0B1F80706D4BDF81000B9
:10106000401CADF8040001260FE00098C76967B185
:1010700003AA01A93846FFF75DFC00B101263846F6
:1010800001F0E5FB076A002FF2D10098076A00A87B
:1010900001F0F6FB002FCED1002E85D1BDF9041052
:1010A000B8F90400ADF80800884207DADDE901016B
:1010B000C8E9020105A801F0E3FBFBE62868D0F8C7
:1010C0004800A8B301F0C3FB05462E6A6EB3304654
:1010D00001F0C5FB0090866AB0071FD5009903A8F0
:1010E000082200F0EDFE03A901A801F0E3FEA8B17B
:1010F000F00705D4BDF80C00401EADF808000DE067
:101100000098C66956B103AA01A93046FFF754FCFE
:10111000304601F09CFB066A002EF4D10098066A66
:1011200000A801F0ADFB002ED1D1A8690028C9D1DB
:101130000598C5696DB3284601F091FB0090856A5A
:10114000A8071FD5009903A8082200F0B9FE03A93B
:1011500001A801F0AFFEA8B1E80705D4BDF80C0066
:10116000401EADF808000DE00098C56955B103AA0E
:1011700001A92846FFF720FC284601F068FB056A14
:10118000002DF4D10098056A00A801F079FB002D2C
:10119000D1D105A801F074FBD8F8100044F6216104
:1011A000884203DB002006B0BDE8F081DDE90101E3
:1011B000C8E9020106B00120BDE8F08130B5DFF8D2
:1011C0004055286890F85400002885B043D0DFF8D7
:1011D000EC476069022805DA2069401C2061FFF7AE
:1011E00047FE28B96069401E606105B0002030BD2F
:1011F000286890F8541021B104F10800FEF7D6FFDA
:1012000028E0806C01F02BFB019002A801990822D4
:1012100000F056FE01A801F033FBE46DBCB101E023
:1012200001F02EFB204601F01AFB009090F82800F8
:10123000800701D400A808E0009902A801F0F4FB9F
:1012400000988469002C00A8EAD101F019FB02A8DB
:10125000FEF7ACFF012005B030BD70B5DFF8A0543B
:10126000DFF8F44B0646286890F854108AB051BB5A
:10127000806C01F0F4FA019004A80199082200F0B2
:101280001FFE01A801F0FCFAE46DB4B102E000A871
:1012900001F0F6FA204601F0E2FA009090F82800FA
:1012A000800707D5009904A801F0BEFB0098846967
:1012B000002CECD100A801F0E3FA04A8FEF776FFB9
:1012C00001200AB070BD6169491C0229616180F288
:1012D000D080806C01F0C3FA02904FF0FF302061A3
:1012E00094F8300050B3029906A80831082200F0A3
:1012F000E7FD1EB1314606A801F096FB2868416C57
:1013000059B302980390082208A800F0D9FDE06DB7
:1013100030B103A801F0B4FAE06D01F0A0FA039037
:101320000398B0F90220B0F9001008A801F06EFB94
:1013300008A906A801F078FB03A80FE0029890F82E
:101340002800800702D5029906A8CFE76069401EF1
:10135000606102A801F094FA91E002A801F090FA0D
:10136000E66D0EB303E0064600A801F089FA3046A8
:1013700001F075FA009090F82800800703D400A8C7
:1013800001F07EFA78E0009906A801F04DFB009884
:1013900080690028E7D100A801F072FAA0698642AE
:1013A0001CBFE069864267D12868866C03E0064668
:1013B00000A801F065FA304601F051FA009090F86B
:1013C00028008007DBD5009906A801F02DFB0098C6
:1013D00080690028EBD100A801F052FAA06986428A
:1013E0001CBFE069864247D1DDE90601C4E900017E
:1013F000286890F85400002842D0606902283BDA3F
:101400002069401C2061FFF733FDA8B3286890F8DD
:10141000541031B104F10800FEF7C8FE01200AB0F3
:1014200070BD806C01F01BFA019004A8019908229C
:1014300000F046FD01A801F023FAE46DB4B102E02A
:1014400000A801F01DFA204601F009FA009090F87A
:101450002800800707D5009904A801F0E5FA009854
:101460008469002CECD100A801F00AFA04A8FEF768
:101470009DFE01200AB070BD6069401E60610020C1
:101480000AB070BD70B58CB0044601F0E8F9019067
:10149000866A0569019903A80831082200F010FD49
:1014A00001A801F0EDF9002D00F08280B00740F1B5
:1014B0007F802E21204602F0DBFADFF8FC5495F8FD
:1014C0003000401C85F83000F00410D50F20079044
:1014D000089403A80A9002F0DBFADFF88019096883
:1014E0000020486407A9204601F0DAFD57E003A870
:1014F000FFF7B3FE20B952E005F10800FEF756FEF3
:101500000F20079003A80A90089402F0C1FADFF8B0
:101510004C6931680020486407A9204601F0C0FDED
:10152000306890F85400002839D06869022833DA0E
:101530002869401C2861FFF79BFC68B3306890F86D
:1015400054100029D8D1806C01F089F9029005A8C7
:101550000299082200F0B4FC02A801F091F9EE6DA6
:10156000B6B102E000A801F08BF9304601F077F93E
:10157000009090F82800800707D5009905A801F091
:1015800053FA00988669002EECD100A801F078F992
:1015900005A8FEF70BFEB3E76869401E68612F21BE
:1015A00095F83000401E85F83000204602F060FAC1
:1015B0000CB070BD2DE9F04F87B0804601F04FF9B7
:1015C000009090F82800800740F192800098DFF8A2
:1015D0009098C569DFF88CA8494CDFF87CB8002DDD
:1015E00000F08680284601F03AF9019090F8280032
:1015F00000F00300032873D1009800F1080101985E
:1016000001F058FC00286BD0009904A8083108228A
:1016100000F056FC00A801F033F901A801F030F900
:101620002068806C01F01BF90390284601F017F93F
:10163000029001460398083001F03CFC00283BD0A2
:101640002068C66C076D0398029900F1080201F149
:10165000080001F009FA03A801F012F90299CBF889
:101660005C502068B1F90010C1640299B1F9021010
:10167000016502A801F004F9284601F0E8F8806A43
:10168000C0034CBF51464946284688470020CBF846
:101690005C002068C6640765284601F0D8F8019010
:1016A0002846FFF787FF284601F0D1F80190404611
:1016B00001F0CDF8009005E003A801F0E1F802A8E0
:1016C00001F0DEF8404601F0CAF80090284601F02B
:1016D000C6F8019004A900980830082200F0F0FB39
:1016E0000198056A01A801F0CBF8002D7FF47AAFCC
:1016F00000A801F0C5F807B0BDE8F08F9F3F3F009C
:10170000800200202DE9F04F89B0054601F0A7F8CE
:10171000059040F60101806A084001280ED005A816
:1017200001F0AEF8284601F092F8806AC0034CBF81
:10173000DFF83017DFF82817284688479E4CA06D41
:10174000002800F009812846FFF734FF284601F001
:101750007EF8DFF808678169DFF80497DFF804870F
:1017600004910029056A00F0F780002D00F0EB805D
:10177000284601F06CF890F8280000F003000328D8
:1017800041D13068806C01F06AF80090284601F081
:1017900066F8019001460098083001F08BFB60B3B9
:1017A0003068C76CD0F850A00098019900F1080289
:1017B00001F1080001F058F900A801F061F8019961
:1017C000E5653068B1F90010C1640199B1F9021002
:1017D000016501A801F054F8284601F038F8806A44
:1017E000C0034CBF41464946284688470020E06573
:1017F0003068C764C0F850A005E000A801F040F8C8
:1018000001A801F03DF8284601F029F8029090F86F
:101810002800800740F18D800298C769002F00F0F2
:101820008880384601F01BF8039090F8280000F0FB
:101830000300032875D1029800F10801039801F014
:1018400039FB00286DD0029906A80831082200F063
:1018500037FB02A801F014F803A801F011F8306872
:10186000806C00F0FCFF0190384600F0F8FF00901B
:1018700001460198083001F01DFB00283DD030687A
:10188000D0F84CA0D0F850B00198009900F10802AF
:1018900001F1080001F0E8F801A800F0F1FFE765A8
:1018A00000993068B1F90010C1640099B1F90210D3
:1018B000016500A800F0E4FF384600F0C8FF806A28
:1018C000C0034CBF41464946384688470020E06582
:1018D0003068C0F84CA0C0F850B0384600F0B7FFF0
:1018E00003903846FFF766FE384600F0B0FF0390DD
:1018F000284600F0ACFF029005E001A800F0C0FF10
:1019000000A800F0BDFF284600F0A9FF029038466D
:1019100000F0A5FF039006A902980830082200F005
:10192000CFFA0398076A03A800F0AAFF002F7FF4FC
:1019300078AF02A800F0A4FF284600F088FF056AEF
:10194000002D7FF415AF049800F081FF056A8069CF
:10195000049000287FF409AF09B0BDE8F08F30B5DE
:10196000DFF8F85404462868806C83B000F077FFF5
:10197000009001A800990831082200F0A1FA00980F
:10198000296808300831082200F09AFA00A800F00F
:1019900077FF2068FFF7B6FE2868806C00F05FFFD5
:1019A000009001A90830082200F08AFA00A800F08F
:1019B00067FF03B030BD0000C89D0020C89D002017
:1019C0002DE9F04FA5B001F0BCFADFF88C54286E79
:1019D0000024010002D0804700E00124A86EF8B185
:1019E00001F0AFFAEE6BBEB1304600F038FF009068
:1019F0000099896A4069090408D53746064600A857
:101A000000F03EFF3846FFF751F903E0064600A814
:101A100000F036FF002EE7D10020A86601F089FA19
:101A2000286D010018BF8047DFF8440400680100FA
:101A300002D080470028D0D1DFF82004006890F859
:101A40005400A0B102F04CF80028C6D1DFF80C0415
:101A5000006890F8540000281CBFA88E002806D00B
:101A600001200390686D28B10068804705E00020E0
:101A7000039002E0012002F0B0F801F05AFA00E011
:101A80000124DFF8D803006890F8540010B3A88E42
:101A900000B301F056FA6F6E012607B9EF6B08A884
:101AA00002F0A4F8DFF8B4030068016B0791002F7F
:101AB000406B06903CD107986F6602F0B0F806982C
:101AC00002F0A2F808A802F096F801F032FAA88E07
:101AD0000028D5D101F035FA0398002800F087805E
:101AE000686D002800F08180406880477FE00298A0
:101AF000FFF708FE4FF00108029800F0B0FE0190D9
:101B0000DFF86813806A08408104019948BF40F0FB
:101B10000400886201A800F0B3FEA88E401EB8F150
:101B2000000FA88618BF761E384600F090FE476961
:101B3000002F18BF002EBED00297384600F08FFE4F
:101B4000019004A801990831082200F0B9F9019820
:101B5000D0F82890D0F818A0D0F810B001A800F064
:101B60008FFE44F2200019EA000F4FF00008DBD08E
:101B7000BBF1000FC0D0DDF808B003E0834600A839
:101B800000F07EFE584600F06AFE009090F82800B3
:101B9000800703D400A800F073FEADE7009904A805
:101BA00000F042FF009880690028E7D100A800F00B
:101BB00067FEA86983451CBFE86983459CD10298EC
:101BC000FFF71EF95FEA497091D5BAF1000F0EBF19
:101BD000012009F0010080F001000090002302AA1A
:101BE000A14904A802F026F886E701F0F6FF01F00B
:101BF000A0F9204625B0BDE8F08F10B50446206856
:101C00000E2802D00F2809D01EE0E06841680129A3
:101C10001ED1BDE81040006801F05CBF8E4A6068CC
:101C20009369002198421FBF0121D36998424FF068
:101C3000FF3102EB81006FF07041406C884203D0AD
:101C400001F0E2FF02F09DF82046BDE8104016E0EA
:101C500010BD82490968012081F8540070477F490E
:101C600000B50968002081F8540081B001F069F9DD
:101C700001F042FE01B05DF804EB01F05AB910B575
:101C80000446216860680E290ED0142906D0172951
:101C900008D022290DD028290FD002E0E16802F0F7
:101CA0002FF90020E06010BD2146BDE8104002F091
:101CB0005FB96FF07040E06010BDBDE810400021DA
:101CC000FEF7DDBE6448002180F8311081660164B2
:101CD00081620162C16241628165C165C164416521
:101CE00070472DE9F04B5C4C94F83100002886B029
:101CF00040F0AF805949E063606600250968486498
:101D0000A086608604F1180804F14407284602F012
:101D100045F900286FD001F014F9E06C40F002069C
:101D20002C2001F0DDF95FEA000959D0608E401CDB
:101D30006086484600F093FD0090002000990880DE
:101D40000099488043F6FE70009988800099C88009
:101D500000994848086148490098806A3140084322
:101D60000099886200A800F08BFDE06B58B100F08C
:101D70006EFD8346484600F06AFDDBF814104161B1
:101D8000CBF8149001E0C4F83C9000214846FEF7DF
:101D900087FBB00644BF4846FFF732F8F00702D58C
:101DA000A06D401CA065700644BF484601F0B1F923
:101DB000484600F054FD00900099806A40F002000F
:101DC000886200A800F05CFD00214846FEF757FE3F
:101DD00001200190CDF8089001A9484601F060F972
:101DE00001F0A7F8C8F800906FF07040386000214B
:101DF0004846FEF744FE6D1C3F1D022D08F1040805
:101E000084DB1E4F1E4E1F4D384602F02DFA304621
:101E100002F02AFA284602F027FA07F1080002F039
:101E200023FA06F1080002F01FFA05F1080002F09B
:101E30001BFAA069FEF7E4FF08490968012081F850
:101E4000540084F831001048E06604F16C0002F0A0
:101E500039F806B0BDE8F08BC89D00208002002054
:101E600085140008CF1B02085F190008DFBFFFFFC1
:101E700064A40020FB1B00089F3F3F0030030020AC
:101E80004003002050030020C51C000830B50A4D57
:101E90002968497C0446094850F82100C268126B41
:101EA00083B000A99047286800AA2146083000F0B6
:101EB000DBFD03B030BD00BF8002002084020020A3
:101EC00062B38B0708D0521E11F8013B00F8013BAA
:101ED00000F024808B07F6D1830740F0208000BFFC
:101EE000103A07D330B4B1E83810103AA0E83810EF
:101EF000F9D230BC530724BFB1E80810A0E808109D
:101F000044BF51F8043B40F8043BD20724BF31F8EA
:101F1000022B20F8022B44BF0B7803707047083A5D
:101F200007D3B1E80810083A40F8043B40F804CB66
:101F3000F7D25307E4E7F0B40168446883680918EE
:101F400001EB5402E40748BF4B440C3091422BD0C4
:101F500011F8014B14F0030504BF11F8015BED1CEF
:101F600026090F2E07D111F8016B0F3603E011F887
:101F7000017B03F8017B6D1EF9D1002EE6D0A40889
:101F800011F8015B04F00304032C08BF11F8014BA6
:101F900005EB04241C1BB51CD8D014F8016B03F806
:101FA000016B6D1EF9D1D1E7F0BC704770B4416888
:101FB000DFF8504A5FF00F0304F1B80555F80869DF
:101FC000B14201D25B1EF9D52268511A216004EB9F
:101FD000C30150F8082F4068443102B15060002816
:101FE00014BF02600A6070BC70470000F0B5DFF8F3
:101FF000144A0546A06B0E46E1680818AF19401E4A
:10200000B84281B006D3386820B978684519384697
:10201000FFF7CCFFA06BB0420AD256F8040C371A77
:10202000386828B9786845193846FFF7BFFF3E463B
:102030005FF00F0004F1B80151F80829954201D270
:10204000401EF9D504EBC0000022416C326075607F
:1020500006F108021160A919366141F8045C50F8D4
:10206000441F01B14A601160002151600260206884
:1020700094F829102818206031B9E168081AA1687D
:10208000814238BF0146A160284601B0F0BD000082
:10209000F0B581B08B080022002B054643D013F029
:1020A0000307164600F00E804FF0FF0CB6FBFCFC59
:1020B000CCEB0C2CA6EB0C047F1E45F8044B06F170
:1020C0000106F1D19F082ED04FF0FF0CB6FBFCFCAF
:1020D000CCEB0C2CA6EB0C0445F8044B4FF0FF0E98
:1020E000741CB4FBFEFECEEB0E2EA4EB0E0445F8E2
:1020F000044B4FF0FF0EB41CB4FBFEFECEEB0E2ED5
:10210000A4EB0E0445F8044B4FF0FF0EF41CB4FB97
:10211000FEFECEEB0E2EA4EB0E047F1E45F8044B04
:1021200006F10406D0D106460025174601E06D1CD5
:102130007F1C9D420ED24FF0FF0EB7FBFEFE56F8FD
:10214000044BCEEB0E2EA7EB0E0E7445EFD0032002
:1021500001B0F0BD521C022A9ED34C080022002779
:10216000002C05464AD014F0030C164600F01180EE
:102170004FF0FF0EB6FBFEFECEEB0E2E7F1CACF139
:10218000010CA6EB0E0E761CBCF1000F25F802EB3D
:10219000EED1A60832D0D7194FF0FF0CB7FBFCFCEC
:1021A000CCEB0C2CA7EB0C0C25F802CB4FF0FF0E60
:1021B00007F1010CBCFBFEFECEEB0E2EACEB0E0CC1
:1021C00025F802CB4FF0FF0E07F1020CBCFBFEFE20
:1021D000CEEB0E2EACEB0E0C25F802CB4FF0FF0E23
:1021E00007F1030CBCFBFEFECEEB0E2EACEB0E0C8F
:1021F000761E25F802CB07F10407CDD1064600254F
:10220000174601E06D1C7F1CA54210D24FF0FF0E57
:10221000B7FBFEFECEEB0E2E36F802CBA7EB0E0E72
:102220001FFA8EFEF445EDD0022001B0F0BD521C25
:10223000022A94D3002200260029044643D011F03C
:102240000307154600F00F804FF0FF0CB5FBFCFCB8
:10225000CCEB0C2C761CA5EB0C0C7F1E04F801CBF0
:1022600005F10105F0D11D002DD09619FF27B6FB11
:10227000F7F7C7EB0727F71B04F8017B4FF0FF0CBC
:10228000771CB7FBFCFCCCEB0C2CA7EB0C0704F881
:10229000017B4FF0FF0CB71CB7FBFCFCCCEB0C2C0C
:1022A000A7EB0C0704F8017B4FF0FF0CF71CB7FB02
:1022B000FCFCCCEB0C2CA7EB0C076D1E04F8017B8F
:1022C00006F10406D2D104460025164601E06D1C35
:1022D000761C8D420DD24FF0FF0CB6FBFCFC14F8BF
:1022E000017BB4445FFA8CFC6745F0D0012001B05B
:1022F000F0BD521C022A9ED309B101F0DDFF00207F
:1023000001B0F0BD10B5DFF8FC46002084F82800CD
:102310008022002104F1400001F0D2FFC022002100
:10232000204601F0CDFF04F1C000BDE810400C22B2
:10233000002101F0C5BF2DE9F041DFF8C846E06A91
:1023400040B9D4F8C810D4F8C4000831B0FBF1F09B
:10235000871C03E0206900EBD000071DF80000F0A7
:10236000C5F85FEA000842D0616BE66A01EBC8007D
:10237000406800F108052069C2002846FFF7B0FD5B
:10238000206965637A1E9042C4F82C8001461BD2F6
:10239000101A05EBC102121D10F0030304D0491CF2
:1023A0005B1E42F8081BFAD180080DD0491C42F888
:1023B000081B491C42F8081B491C42F8081B491C11
:1023C000401E42F8081BF1D105EBC1010020486016
:1023D000206921696062276160683818401A60606E
:1023E00016B1304600F0C6FA0020BDE8F0810120A9
:1023F000BDE8F08110B5DFF80C4694F828000028FD
:1024000073D1012084F82800D4F8C410D4F8C00097
:10241000B1F5205F88BF4FF42051FFF739FED4F8A3
:10242000C80020B9D4F8C4008008C4F8C800DFF898
:10243000D805C4F8CC0004F1CC0001F043FD5A20CB
:10244000206204F140010020102202FA00F341F85A
:10245000083B401C02FA00F341F8083B401C02FA1A
:1024600000F3401C41F8083B8240401C102841F812
:10247000082BE9D302202061D4F8C010D4F8C4009E
:10248000E0604218A163143A626300210020626B8D
:102490008218491C51602269521E914218D2626B07
:1024A0008218491CD1602269521E914210D2626B7F
:1024B0008218491C51612269521E914208D2626BF6
:1024C0008218491CD16120302269521E9142DED30C
:1024D000012060622069A16B401E6060E068FFF728
:1024E00085FDFFF728FF0120206310BD2DE9F04591
:1024F00085B00546FFF77EFFDFF80845206C854272
:1025000002D3E81C800880000C30009000992068FD
:102510008842C0F09480206B6168884209D3401ED5
:102520002063FFF708FF216B491C0028216340F05E
:1025300086806068616B401E6060606A01EBC0026B
:1025400052686262012201F830200028019076D0A2
:10255000009800255FF00F0104F1B80252F8083925
:10256000984201D2491EF9D504EBC102443202E07F
:102570005DB9491C083210290FD213683BB19D6820
:10258000002DF6D06B6883425DD2AB680BB9002595
:10259000EFE79D686B688342EAD3002D53D1049026
:1025A000A66BE0688019401E0390304645680168BC
:1025B00089BB039AA91991422DD288460291D8F875
:1025C00004A0D8F8001031B3626B12F83120012A50
:1025D00021D1E26A91420CBF01270027FFF7E6FCF8
:1025E000606BD8F8001000EBC100524646604146CF
:1025F000304601F0E9FE27B1606B0299401A3018AD
:1026000060630AEB06012846FFF7F0FC049909B164
:1026100088429DD255460398AE198642C5D360685C
:102620000199401C6060606B00EBC100616A416011
:102630000020616B019A01F832000198606200206D
:1026400005B0BDE8F0856E68216C301A0C31884207
:1026500038BF00962846FFF7A9FC606B019900EB94
:10266000C100456000980199296068600021A96057
:102670002D61411941F8040C0098B042BCBF301ADA
:10268000FFF7B4FC019805B0BDE8F08530B1DFF884
:102690007413CA6B026002B15060C86370470000D7
:1026A0002DE9F04B86B00446FFF7A4FEE01C80083D
:1026B0008000DFF85053EE6B00F10408286C804571
:1026C00038BF804600E0366846B356F8040C4045F3
:1026D00011D0366816B356F8040C40450BD0366856
:1026E000E6B156F8040C404505D03668B6B156F848
:1026F000040C4045E7D196B1306808B1716841607B
:10270000706808B131680160E86BB04240F08C80BD
:102710003068E86306B03046BDE8F08B0026AF6B4A
:10272000E868C0190190001F049004990198096895
:10273000441A206800285BD0E868C019401E039046
:1027400039687A68002914464AD1039BE1199942F5
:1027500046D2029148680090D1F800C0BCF1000F49
:102760003ED0686B10F83C00012839D1E86A059228
:1027700084450CBF4FF001094FF000094FF00F0CDA
:1027800005F1B80E5EF808B95A4502D2BCF1010C49
:10279000F8D52868821A07F108002A6005EBCC02F8
:1027A00003684068443203B15860002814BF0360D6
:1027B0001360686B0A6800EBC20047603846009AF5
:1027C00001F002FEB9F1000F04D0686B0299401AC3
:1027D000381868630098C1192046FFF707FC009C71
:1027E0000398E7198742ABD3049901980968441A02
:1027F0002068C8B96068404516DB0019A0EB0800E6
:10280000061D2046FFF7D2FBE868A0EB0800E86051
:102810006869404468616068B0EB08001CBF2146ED
:10282000FFF7E4FB46F8048C304606B0BDE8F08BB9
:1028300010B5040001D1002010BD00F082FB20463D
:10284000FFF754FE044600F074FB204610BD28B18B
:102850006C49496B01EBC00040680830704769491A
:10286000CA69521CCA614A6B02EBC00213785B1C36
:10287000137020B1496B01EBC0004068083070470D
:102880000368604953F8083C4A6B02EBC3021378B3
:10289000022B03DBCB690BB15B1ECB611178491EA8
:1028A00011700021016000207047000010B5FFF793
:1028B000A1FD544A00240F2102F1BC0353F808097A
:1028C00068B102EBC100406C806850B1416880681B
:1028D0008C4238BF0C4620B1806810B1F6E7491E23
:1028E000ECD5A4F10C0010BD10B500F02AFBFFF7E9
:1028F000DDFF4449096AB0F5800F05D9642290FBD9
:10290000F2F001FB00F403E048436421B0FBF1F472
:1029100000F00FFB204610BD3A488169491C8161D7
:10292000704738488169491E81617047354AC2F84D
:10293000C00088088000C2F8C400704711283149DF
:1029400008D3D1F8C420B0EB520F04D35008C1F81B
:10295000C80070471020C1F8C8007047002138B186
:102960002849496B01EBC00040684068A0F10C01A8
:102970000846704730B5040081B01FD000F0E1FA7E
:10298000204D686B10F8341099B1022911DA00EB70
:10299000C40041684868FFF729FB6868696A401C01
:1029A0006860686B00EBC4025160002100F83410CD
:1029B0006C6201B0BDE8304000F0BBBA01B030BD80
:1029C00010B5044600F0BDFA2068FFF7D3FF0020E1
:1029D0002060BDE8104000F0ACBA000070B50D46B4
:1029E0000026012D04460CDB00F0ABFA2068FFF74F
:1029F000C1FF002044F8040B761C00F09AFAAE42A6
:102A0000F2DB70BD989400200523000858B10388BC
:102A1000CB1803808388C918818041885118418070
:102A2000C1885118C1807047B1F90020B0F9003059
:102A30009342B8BF0280B0F90220B1F902309A4245
:102A4000B8BF1A464280B0F90430B1F904209A4266
:102A5000C8BF1A468280B0F90630B1F906209A4202
:102A6000C8BF1A46C2807047B1F90030B2F900C041
:102A70009C45A8BF63460380B1F902C0B2F9023099
:102A80006345B8BF63464380B2F904C0B1F904306E
:102A90006345C8BF63468380B2F906C0B1F906300A
:102AA000B0F904106345C8BF6346C380B0F9002085
:102AB0009142A2BFB0F90610B0F90200814201DADA
:102AC000002070470120704700B9704710B481B0F2
:102AD00019B31AB3B2F90030B1F900409C42B8BF43
:102AE0002346038001B0B1F90230B2F90240A3429B
:102AF000C8BF23464380B1F90440B2F90430A34271
:102B0000B8BF23468380B1F90640B2F90630A3422C
:102B1000B8BF2346C38010BC7047114601B010BC3B
:102B20000822FFF7CDB98268521C8260426832B138
:102B30000268531C036011704168491E4160704770
:102B400003480068010018BF0047704700000000FC
:102B500080A4002010B5040007D000F0F2F9204650
:102B6000FFF775FEC46900F0E4F9204610BDC1B25C
:102B700000F47F4242EA0141C0F307400843704736
:102B8000F0B581B004460D461646FFF768FE00908A
:102B90001621009A1268D268526A002090470746B0
:102BA00000A8FFF76DFE380003D0324629462046C4
:102BB000B84701B0F0BD2DE9F14FDFF8EC02006835
:102BC00084B01E46437CDDF840800F9889469346CA
:102BD0000022414601F005FA0027040049D020698F
:102BE0008068804701F073FD82460AFB0BF0C01D30
:102BF000C0080290FFF778FE0E9DE90705D441104A
:102C000000EB9170801000EB4000012E0BDA02996E
:102C100000291ABF1838B0FBF1F0002071420E46AF
:102C20008642C8BF0646E80707D404980097334693
:102C30005A46494601F028FE0746012E06DA20468C
:102C400001F0CDF9002005B0BDE8F08F0298704387
:102C50001830E90702D5FFF7EBFD01E000F040FA7C
:102C600005000AD1204601F0BAF917B13846FFF73E
:102C700081FE002005B0BDE8F08FFFF7F0FD019068
:102C800004600199049888800198A0F80690019842
:102C9000A0F808B00198468101990298C86001988F
:102CA000C0F810A00198476101A8FFF7E9FDC4F83A
:102CB0001080A5607C480068407CA06105B0284673
:102CC000BDE8F08F30B581B0044600258CB100F02E
:102CD00038F92046FFF7C3FD00900068006980685E
:102CE000804701F0F4FC054600A8FFF7C9FD00F09D
:102CF00020F9284601B030BD10B5040082B01CD0C8
:102D000000F01FF968480068006EA04208BF01F09B
:102D1000FBFD2046FFF7A3FD0090406908B101F0DC
:102D200003FE0098006801F05AF900A8FFF7A8FD1B
:102D30002046FFF71FFE00F0FCF802B010BD2DE9A1
:102D4000F04784B00446884691469A4600F0F9F868
:102D5000554856490068407C51F820700026F968B3
:102D60000968042903D03F68002FF8D100E017B9A3
:102D700001F014F90746FA68D26A012138469047F3
:102D8000050013D03F690C9EB868804710F1010F11
:102D900004BF474F46F0010602970195009653463F
:102DA0004A4641462046FFF706FF064600F0C1F8B6
:102DB000304604B0BDE8F08770B582B0044600F03C
:102DC000C0F8394D2868066E14B901F09DFD15E074
:102DD0000EB101F099FDFEF742FF2046FFF73FFDDF
:102DE0000090286804660098006801F040F900A887
:102DF000FFF746FD01F0C8FD00F07EFD00F099F8F8
:102E0000304602B070BD2DE9F043040083B047D0D6
:102E100000F097F8002001F0C9FD0546224800683F
:102E2000066E2046FFF71BFD00900068806900F0E9
:102E30001EFA074600980099B0F90480B0F9069090
:102E4000ADF80480BDF804000989ADF806900818B3
:102E5000401E0099ADF808004989BDF80600081821
:102E6000401EADF80A00FEF7F4FE00A8FFF708FDCB
:102E700001A8FEF7F2F940B14A464146204602F069
:102E800031F9FEF79BF90028F6D1384600F0EFF94A
:102E90003046FFF791FF284601F088FD00F049F821
:102EA00003B0BDE8F083000080020020840200200F
:102EB00028320208B1F90620B0F902309A42A2BFC6
:102EC000B0F90620B1F902309A420DDBB1F90420C5
:102ED000B0F900309A42A2BFB0F90400B1F9001075
:102EE000884201DB012070470020704730B581B077
:102EF0000024684D00E0641CE86884420EDA02F0A9
:102F000045F9C4EB04112A68C9008B58834202D0EA
:102F1000002BF0D18850204601B030BD002001B018
:102F200030BD10B55B4C2068FFF7B0FB002020607F
:102F300010BD58480169491E016108BF02F01FB960
:102F4000704730B5534C206981B020B102F01EF9B2
:102F5000A168814204D002F007F902F017F9A060DD
:102F60002069401C012820611BD1FFF7BFFF0546E7
:102F70006068854215D0002812D401F0E7F8626835
:102F80002168C2EB021301EBC3025067C5EB0510C9
:102F900001EBC000404A011D1160406F01F000F9D3
:102FA000656001B030BD30B53A4C3C48606181B0DD
:102FB00004F1140000F086FFE068C0EB0011CD00C2
:102FC0002846FFF76DFB20602A46002101F078F9C2
:102FD0004FF0FF30606002F0B9F801B0BDE830405A
:102FE00084E7F0B52B4CE768012F81B044DB2568FE
:102FF000294EF80711D53168281D7022FEF770FFA1
:103000000020286005F10C00A861281DE86305F187
:1030100008002864281D686478357F082CD0316842
:10302000281D7022FEF75CFF00202860702205F149
:103030000C00A861281DE86305F108002864281D1C
:10304000686405F17C003168FEF74AFF0020A8673C
:103050007F1E05F18400C5F8900005F17C00C5F8DD
:10306000B40005F18000C5F8B80005F17C00C5F892
:10307000BC0005F1F005D2D1FFF763FF2069401EC7
:10308000206104D101B0BDE8F04002F078B801B091
:10309000F0BD00006C03002080020020232F0008F8
:1030A00070B50E4C0546206814280E4614DA2846E2
:1030B000FFF7CDFB01697560080008D02068401C4F
:1030C0002060304688472068401E206070BD304632
:1030D000BDE87040FEF7D3BD70BD00BF88A40020DE
:1030E00030B581B00446FFF72CFF2046FFF7A0FB68
:1030F000050009D0FFF7B3FB00902246002101F044
:10310000DFF800A8FFF7BCFBFFF713FF284601B06C
:1031100030BD2DE9F04186B00446FFF712FF002CC8
:103120003AD02046FFF79BFB009003A800990822A5
:10313000FEF7C6FE0098056A866A00A8FFF7A0FBA6
:10314000204602F03FF8070026D0204602F04FF854
:103150008046B00704D52A46414603A8FDF7E3FAA6
:103160002046FFF77CFB00904046FFF778FB01907C
:103170003846FFF774FB0290056201980099C06918
:1031800008620198C46100A8FFF77AFB01A8FFF765
:1031900077FB02A8FFF774FBFFF7CBFE06B0BDE894
:1031A000F0810268531C03601170704770B582B0E3
:1031B0000446FFF7C6FE00A802F04CF803E000A9A1
:1031C000284602F05BF8054645B30121284602F087
:1031D000A7F80099002918BF0028F0D00846FFF78B
:1031E00036FB4068A042EAD1009E00A9284602F0C2
:1031F00045F8002E0546E7D0FFF7A3FE3046FFF75F
:103200002EFB0190006802F055F801A8FFF738FB8B
:103210003046FFF7AFFBFFF78CFED5E7FFF789FEDF
:1032200002B070BD00B585B026220391009200A9BE
:1032300000F09EFE05B000BD002102283CBF1549EC
:1032400051F820100846704770B504460D461646E2
:10325000FFF777FE32462946204602F0FAF810B111
:10326000002028603060BDE87040FFF762BE70B596
:10327000094D04462868467CFFF763FE022C03D202
:103280002868447401F040FB04480460FFF751FED5
:10329000304670BD48A3002080020020009E002020
:1032A00070B504460D461646FFF74BFE32462946DA
:1032B000204602F09CF80446FFF73BFE204670BD16
:1032C00010B5DFF89C4721684A6B82420FD04863F3
:1032D000DFF89027497C52F821100969096888476E
:1032E00021680A7C52074CBFC96B896B086010BD0E
:1032F00010B5DFF86C4721680A6B82420FD0086373
:10330000DFF86027497C52F821100969096888476D
:1033100021680A7C52074CBF896BC96B086010BDDD
:1033200070B4DFF83C170A68117C80EA01035B0780
:1033300005D5936BD56B1C682E681E602C601074CD
:10334000084670BC7047DFF820170968896808478D
:10335000DFF80C271268B2F90A30994200DA704798
:1033600030B5B2F90E3081B08B42A1BFB2F908304E
:103370009842B2F90C30834217DBDFF8E836547C10
:1033800053F82440137CE568DB0707D50A4601465D
:10339000EB69204601B0BDE830401847D26B136896
:1033A0000A4601462046AC69A04701B030BD10B5C1
:1033B000DFF8AC361B68B3F90A40A142A4BFB3F9E9
:1033C0000E408C4217DBB3F90840A042B8BF20463C
:1033D000B3F90C409442B8BF224682420BDBDFF8BF
:1033E00084465B7C54F8234013460A460146204637
:1033F000E468A468A04710BD10B5DFF864361B6808
:10340000B3F90840A042A4BFB3F90C40844217DBD3
:10341000B3F90A40A142B8BF2146B3F90E40944225
:10342000B8BF22468A420BDBDFF838465B7C54F893
:10343000234013460A4601462046E468E468A04754
:1034400010BD30B5DFF818462468B4F90850A8421A
:10345000B8BF2846B4F90C509542B8BF2A468242FC
:1034600081B018DBB4F90A50A942B8BF2946B4F9B3
:103470000E509D42B8BF2B468B420CDBDFF8E45563
:10348000647C55F82440009313460A4601462046C2
:10349000E4682469A04701B030BD00002DE9F54F74
:1034A00087B0DFF8C805149C0668179D86B116988A
:1034B000089A04900294059515980390139801902A
:1034C0001298009034680798A04709B0BDE8F08FC3
:1034D0005818421E0798089E3018471E1298139ECF
:1034E0003043012861D1DFF878653068B0F90AC04F
:1034F000ACEB0106012E0BDB9B1B012BC0F2D7802E
:103500006146DDF858C0DDF854E00EFB06C616969D
:10351000B0F90E60961B012E03DB9B1B012BC0F242
:10352000C680B0F90C20BA1A012A02DB089EB21A32
:103530000892189A079EB61A0796B0F90870DDF837
:103540001CC0BC45164616DABE19A6EB0C06DDF803
:1035500020C0ACEB0707DDF81CC067440897B21A1F
:10356000169F07EBE607169722F00702079FD2196E
:10357000079206F00706089A012AC0F29880DFF841
:10358000E424407C52F82000169A03920194059599
:1035900004960093159A089B02920A46C4680799FC
:1035A0006468A04709B0BDE8F08FC4F10800012BA2
:1035B000059001917BDB0293DFF8A46413980199D5
:1035C0000818401E039030680399B0F90A20914210
:1035D000A2BFB0F90E00019988425CDB1698079FE4
:1035E00004900898012856DBDDF8208003E000BF36
:1035F000BAF1000F06D10498401C04904FF0080A5D
:1036000010F8019D05985FFA89F232FA00F13068EE
:1036100002FA04F9AAEB040A02D1027C920735D41B
:10362000C26BD2F800B00DB155F82110116012999B
:10363000B0F908E0DDF80CC0019A79184B1E394644
:103640007145B8BF7146B0F90CE09E45B8BF7346EE
:103650008B4217DBB0F90AE07245B8BF7246B0F989
:103660000EE0E645B8BFF44694450BDBDFF8F4E323
:10367000407C5EF82000CDF800C0D0F80CC0DCF82B
:1036800010C0E0473068C06BC0F800B01298C7198E
:10369000B8F10108ACD10198139908180190159957
:1036A0001698081816900298401E029086D109B00C
:1036B000BDE8F08F2DE9F44F044686B0DFF8AC0387
:1036C000149D06688EB11598069A05900495139876
:1036D0000390129802901198019010980090204643
:1036E0003468A04707B0BDE8F08F1219A2F10109B4
:1036F000109A119E5818401E3243012A40F07B80D8
:10370000D74E3268B2F90A707E1A012E07DB9B1B76
:10371000012BC0F2EE803946139F07FB0655B2F924
:103720000E60861B012E03DB9B1B012BC0F2E18088
:10373000B2F90C00A9EB0000012802DB069E301A4A
:1037400006900026B2F9080084423ADA061B069871
:10375000801B06901298401E1F2832D8DFE800F028
:103760001018312031313128313131313131312AA4
:10377000313131313131312D313131313131312D41
:1037800005EBE60526F00700041906F0070618E029
:1037900005EBA60526F00300041906F0030610E069
:1037A00005EB660526F00100041906F0010608E0A5
:1037B000751904E005EB460501E005EB86053419B3
:1037C000002606980128C0F29480A648527C50F842
:1037D0002200159A0592049603950093139A069B6E
:1037E0000292129A01920A462146C4686468A04770
:1037F00007B0BDE8F08F1298C0F10800012B0590CA
:10380000019176DB0293964E119801990818401E9B
:10381000039030680399B0F90A209142A2BFB0F931
:103820000E0001998842A1BF0495A146069801287F
:1038300055DBDDF8188002E0BAF1000F06D10498DC
:10384000401C04904FF0080A10F8017D0598FFB263
:1038500027FA00F112988740AAEB000A306811B9E4
:10386000027C920736D4C26B159BD2F800B00BB124
:1038700053F8211011601099B0F908E0DDF80CC080
:10388000019A49444B1E49467145B8BF7146B0F98B
:103890000CE09E45B8BF73468B4217DBB0F90AE0D7
:1038A0007245B8BF7246B0F90EE0E645B8BFF446BF
:1038B00094450BDBDFF8ACE1407C5EF82000CDF8EE
:1038C00000C0D0F80CC0DCF810C0E0473068C06B16
:1038D000C0F800B0B8F1010810988144ACD101984B
:1038E000119908180190139845190298401E0290EA
:1038F0008AD107B0BDE8F08F5948016859484A7C21
:1039000050F82200C268126B08311047544870B555
:10391000016854484A7C50F82200C268126B82B099
:103920000831904701F0D0FD040022D1002000F0C2
:1039300035FB009050B1009AD268526A0C2100A861
:10394000904701000FD0009888470446012000F0FE
:1039500025FB009068B1009AD268526A0C2100A839
:103960009047010002D1012002B070BD0098884745
:103970000443002C44D101F007FE012000F00EFBAF
:1039800043F6FF75384E0090D0B10120FFF76FFC71
:1039900031688968042088472B462A460021002088
:1039A000FFF74FFD3168896800208847009AD26888
:1039B000526A0E2100A8904701001CBF009888475A
:1039C000002000F0EBFA0090D0B10020FFF74FFC90
:1039D00031688968042088472B462A460021002048
:1039E000FFF72FFD3168896800208847009AD26868
:1039F000526A0E2100A8904701001CBF009888471A
:103A0000204602B070BD164A16491268527C51F821
:103A10002210096909680847114A12491268527C44
:103A200051F822100969496808470D4909680A7C5C
:103A300052074CBF896BC96B086070470849096819
:103A40000A7C52074CBFC96B896B086070470649F6
:103A50000968496808470449096809680847000077
:103A600080020020840200209C02002074A4002018
:103A700030B581B004460D46FFF763FA294620466B
:103A800001F0C8FD01B0BDE83040FFF752BA200098
:103A900000B581B0002000F0B7F86FF07F4000F073
:103AA000BEF8012001F0CCFD002001F0D9FD00207E
:103AB00001F0E8FD002000F079FF0548006801F002
:103AC000F3FD01B05DF804EB002001F0FFBD000044
:103AD0007C0200200F498A6802B98860FFF730B87D
:103AE00010B5FFF72EFA0B4A136850680024834282
:103AF0000CD01868596802F16004A3420CBF02F1AF
:103B0000100308331360012401F0F0FDFFF711FAF0
:103B1000204610BD14040020F0B50124022881B015
:103B200058DA002935D002291BD053D22D4E06EB8E
:103B30008005696899B900F031FA0028009049D0F1
:103B4000009AD268526A0D2100A89047020041D025
:103B500000980121904768680024401C39E0481C07
:103B600037E000F01BFA0090A0B3009AD268526AC6
:103B70000D2100A8904705002CD01A4E3068010096
:103B800018BF804700980221A8470024204601B0B2
:103B9000F0BD144E06EB80056968012913D100F0D1
:103BA000FDF9009078B1009AD268526A0D2100A800
:103BB0009047070007D03068010018BF8047009881
:103BC0000021B84700246868411E8941C943A0EB21
:103BD000D1706860204601B0F0BD0146024800681F
:103BE000407C99E780A200208002002005490968F6
:103BF0007022FEF775B90146024800687022FEF790
:103C00006FB900008002002010B50446FFF799F953
:103C10002046FFF71CFFBDE81040FFF78AB910B53A
:103C20000446FFF78EF92046FFF715FFBDE8104068
:103C3000FFF77FB92DE9F04F074645480068457CFE
:103C400044482856022883B08A4693469846284618
:103C500006DB00F006FC8146284600F010FC05E07B
:103C600000F01BFC8146284600F025FC054617B3F2
:103C700001A902A801F05AFDB7F90040B7F90260A6
:103C80000298B7F90410B7F90620002CB8BF002439
:103C9000002EB8BF00264844401E8842C8BF0846D0
:103CA00001996918491E9142C8BF1146001B421C68
:103CB000881B451C02E0002400264A46B8F1000F8C
:103CC00008BFC5F10008012AA8BF012D39DB0C98F7
:103CD0000090434631462046FFF731F85FEA00097D
:103CE00005D15846D047012003B0BDE8F08F01F060
:103CF00035FD80464846FFF75FF80027E91B414540
:103D0000BCBF484601F046FD3FB1BA1921464846BE
:103D100001F05EFD484601F095FD5846D0470B483E
:103D2000016808001CBF002088474846FFF76BF871
:103D30004744AF42E2DB4846FEF7DEFF0020FFF7D4
:103D40003BF8002003B0BDE8F08F00008CA40020F9
:103D500080020020C6A4002010B55E4C0020C4F8EC
:103D6000940070220021204600F0AAFA04F1880095
:103D7000BDE810400822002100F0A2BA56490860B0
:103D800070472DE9F04182B00021002001F07EFD56
:103D9000FFF7D7F80420FFF7D6FA80464D484F4A80
:103DA000D0F88400C16C006D5518161843F6FF72E8
:103DB00057181418ADF80050ADF80470ADF8026053
:103DC000ADF8064000A8FDF748FA48B123463A4648
:103DD00031462846FFF735FBFDF7F0F90028F5D10D
:103DE0004046FFF7B0FAFFF7A4F802B0BDE8F08153
:103DF00010B53C48016849084900016001213A4872
:103E000081603A49016000683949884200D0FEE784
:103E1000304CD4F8940088B90120C4F8940001F023
:103E200047FDFFF7C0F802F097FC2D482067D4F853
:103E30009000606704F17000C4F890002E2084F8B0
:103E4000780001F0A8F9D4F88400011DC1638063F3
:103E5000006400F10801616104F10801407C04EB99
:103E60008000D0F88800C268126B90470FF288007B
:103E70006066D4F88000E061D4F8840008306061A6
:103E80000120207602F002FEA064032084F868007E
:103E90006FF07040206360630020FFF7D8FD6FF083
:103EA0007F40FFF7D8FD1348E067FFF72FFD04467A
:103EB0000021002002F0F6FDFDF713FFFFF791F857
:103EC000204610BD0349D1F890204260C1F890000F
:103ED00070470000FC0100209402002001C0FFFF99
:103EE000593D0008002000E000300240C2A507F460
:103EF000CDB5E8B5DC2F0208AF3300085133000818
:103F000010B50C46002818BF002C82B008D0FEF770
:103F1000A6FC00902146FCF7A6FD00A8FEF7B0FC29
:103F200002B010BD30B581B00446FFF70AF80E4864
:103F3000056815B90D480068856CFFF702F8002D7B
:103F400018BF002C09D02846FEF789FC00902146B6
:103F5000FCF789FD00A8FEF793FCFEF7EAFFFEF7E9
:103F6000E8FF01B030BD0000249E00208002002048
:103F700030B50D0081B004460ED0FEF7E2FF2046BA
:103F800001F035F918B1AC602946FFF789F801B0A6
:103F9000BDE83040FEF7CDBF01B030BD022801DBE7
:103FA00000207047AC4951F8200000E00068A8B13B
:103FB000C168096891B1006800280FD0C16809681C
:103FC00061B10068002809D0C168096831B1006892
:103FD000002803D0C16809680029E7D17047FEF7BF
:103FE00055BBF0B51E46022E81B004460F4615465D
:103FF00003DA1C20FEF754FB10B9002001B0F0BD1D
:104000000FB1076115E0944951F8261089B10A688B
:104010006AB109680A6852B111460A683AB1114694
:104020000A68002A03D011460A68002AF1D10969FA
:10403000016186618582C460002101604160816008
:1040400001B0F0BD8169844A52F82130834204BF37
:10405000036842F82130416809B102680A600168CA
:1040600009B142684A60002101604160704770B444
:1040700000284CD081690C46022C48DA764A52F866
:10408000243013B942F8240049E05C680CB35B6843
:104090005C68ECB123465C68DCB123465C68C4B163
:1040A00023465C68002CF2D113E01B687BB3DE680A
:1040B0003668B54213DA1B684BB3DE683668B54222
:1040C0000DDA1B681BB3DE683668B54207DA1B6879
:1040D000EBB1C468DE6825683668B542E5DBDE68AA
:1040E0003668AE420AD1858A2668012D06D11D6840
:1040F00025B12B46DD682D68B542F8DA5C68002CE6
:104100001DBF20605968416042F8210002E070BC88
:10411000012070475860984208BF002303600020C8
:1041200070BC704730B581B01C46FFF75AFF0500E0
:1041300009D0FFF79CFFE868006820B9474800688D
:1041400000EB84008565284601B030BDF0B44249DB
:104150000FF20C1400200A4602231568DDB1EE6848
:104160003668365DA6B1AE6951F82670AF4204BF1D
:104170002F6841F826706E680EB12F6837602E6880
:104180000EB16F68776000262E606E60286028464A
:104190002D68002DE3D1121D5B1EDED1F0BC7047EF
:1041A0002D4900B97047F0B4026800284FD08369E8
:1041B0001D46022D4BDA51F8254014B941F825006F
:1041C00045E065680DB364686568EDB12C466568C7
:1041D000DDB12C466568C5B12C466568002DF2D16D
:1041E00013E024689CB3E7683F68BE4213DA246892
:1041F0006CB3E7683F68BE420DDA24683CB3E768F9
:104200003F68BE4207DA24680CB3C568E7682E68C9
:104210003F68BE42E5DBE7683F68B7420AD1868A5D
:104220002F68012E06D1266826B13446E668366826
:10423000BE42F8DA6568002D1DBF286063684360E0
:1042400041F823006060A04208BF00240460100011
:10425000AAD1F0BC70470000840200208002002038
:10426000000000000101010112490A6802600860B3
:10427000704710490A68E2B10023824206D113B1A7
:10428000106818607047106808607047134612681D
:104290007AB18242F4D01346126852B18242EFD012
:1042A000134612682AB18242EAD013461268002AE5
:1042B000E3D17047089E0020002202F019BC2800BC
:1042C00070B402E000F8011B521EBAB110F00303F3
:1042D00014D000F8011B521E18BF10F003030DD0BC
:1042E00000F8011B521E18BF10F0030306D000F89F
:1042F000011B521E18BF10F00303E3D193084FD0E7
:104300004FF001344C43042B02F0030238DB5D080C
:1043100003EB9575AD0815F003060AD040F8044B81
:1043200040F8044B1B1F40F8044B761E40F8044B2A
:10433000F4D1AD0800F0238040F8044B40F8044B62
:1043400040F8044B40F8044B40F8044B40F8044B51
:1043500040F8044B40F8044B40F8044B40F8044B41
:1043600040F8044B40F8044B40F8044B40F8044B31
:10437000103B40F8044B6D1E40F8044BDCD17BB180
:104380005B1E40F8044B0BD05B1E40F8044B07D07B
:104390005B1E40F8044B03D05B1E40F8044BEFD18A
:1043A0007AB1521E00F8011B0BD0521E00F8011BFF
:1043B00007D0521E00F8011B03D0521E00F8011B4B
:1043C000EFD170BC7047040081423ABF5318984245
:1043D000FDF776BD8018990707D0521E24BF13F849
:1043E000011D00F8011DF6D8704781071CD1103A55
:1043F00007D330B433E93210103A20E93210F9D241
:1044000030BC1032121F24BF53F8041D40F8041DA5
:10441000F8D838BF121D521E24BF13F8011D00F832
:10442000011DF8D8704700BF083A07D333E90210DE
:10443000083A40F804CD40F8041DF7D20832EAE704
:1044400030B50025022881B00C4607DAFFF7A6FD3B
:1044500020B1C268926A214690470546284601B0BD
:1044600030BD10B50024022807DAFFF797FD20B110
:10447000C268926A012190470446204610BD10B5DB
:104480000024022807DAFFF789FD20B1C268926A8A
:10449000022190470446204610BD10B50024022892
:1044A00007DAFFF77BFD20B1C268926A03219047CB
:1044B0000446204610BD10B50024022807DAFFF795
:1044C0006DFD20B1C268926A0421904704462046DF
:1044D00010BD10B50024022807DAFFF75FFD20B1F8
:1044E000C268926A082190470446204610BD10B564
:1044F0000024022807DAFFF751FD20B1C268926A52
:10450000092190470446204610BD10B5002402281A
:1045100007DAFFF743FD20B1C268926A0C21904789
:104520000446204610BD10B50024022807DAFFF724
:1045300035FD20B1C268926A0D219047044620469D
:1045400010BD10B50024022807DAFFF727FD20B1BF
:10455000C268926A0E2190470446204610BD10B5ED
:1045600032480068407C0024022807DAFFF716FD75
:1045700020B1C268926A012190470446204610BDCE
:1045800010B52A480068407C0024022807DAFFF7AB
:1045900005FD20B1C268926A022190470446204678
:1045A00010BD10B521480068407C0024022807DABD
:1045B000FFF7F4FC20B1C268926A082190470446D4
:1045C000204610BD19480068407C092138E7184989
:1045D00051F82000C268926A082110470246144B25
:1045E00003EB820053F82220D268526A10470F482A
:1045F00000B50068407C81B0FFF7D0FC30B1C268E4
:10460000D26A01B05DF804EB0221104701B000BD91
:10461000074951F82000006940687047044951F883
:104620002000006900687047000000008002002040
:104630008402002070B5002401252846FFF7AEFC57
:10464000002620B1C268926A032190470646B44210
:10465000B8BF34466D1EF0D5204670BDB0B34108DA
:10466000490001D1012070478108890001D1022051
:104670007047C108C90001D1032070470109090131
:1046800001D1042070474109490101D1052070473B
:10469000010A090201D108207047410A490208D0E5
:1046A000010B090305D0C10BC90302D0010C090499
:1046B00001D110207047810C890401D1122070476C
:1046C00010F07F4F01D1182070472020704710B59F
:1046D000FFF7C4FF0024012808BF01240ED0811E6B
:1046E000072938BF082409D3A0F10901082938BFD8
:1046F000102403D31138102838BF2024204610BDC1
:10470000B0F90030C91AB0F90230D21A036903FBBC
:10471000020000EBE100802310F8142F01F00701E4
:1047200023FA01FC4CEA02010170704770B5B0F940
:104730000040091BB0F90440A1422CDAB0F9024054
:10474000121B0469CD1004FB0200281800F11404A8
:104750005818401EC5EBE005FF2201F0070600F0E7
:10476000070022FA06F1C0F1070002FA00F62078ED
:10477000F6B215B9314008430CE06D1E0843012D17
:1047800004F8010B04DB2946204602F0ADF92C1990
:1047900020783043207070BDB0F906100269514393
:1047A0001430FFF789BD000070B4B0F906500B68F3
:1047B000B0F90440AA421BDA0669DD1006FB0200CC
:1047C00028181430A34213DA621EC5EBE20210F877
:1047D000014B03F00705AC4006E000BF10F8014BA9
:1047E0000833521E23F00703E4B224B9002AF5D19E
:1047F00070BC0020704725060FD464005B1C2506A2
:104800000BD464005B1C250607D464005B1C2506E2
:1048100003D464005B1C2506EFD5E4B2FF2C10D056
:1048200066061D460ED56D1CA6060BD56D1CE6064C
:1048300008D56D1C260705D524016D1C6606F2D42B
:1048400000E0DD1D05F00704072C16D100E0083557
:10485000521E12D410F8014BFF2CF8D020060CD5B4
:104860006D1C600609D56D1CA00606D56D1CE00602
:1048700003D524016D1C2006F2D40B60E81A70BC2D
:10488000401C7047FEF776B82DE9F0430446164603
:1048900006F10F0000119846470007FB08F081B0B1
:1048A0000D461430FEF71CFC5FEA00091CD0FEF731
:1048B00048FB4846FDF7D3FF0090048000984580F0
:1048C000009886800098A0F8068000990FF22000DA
:1048D00088600120009988810098076100A8FDF791
:1048E000CFFFFEF726FB484601B0BDE8F08300008D
:1048F000014700082D470008994700080000000004
:1049000085480008A947000800B581B0FEF719FBEB
:1049100002F01EF900F038F8FDF79BF901B05DF8E0
:1049200004EBFEF706BB200030B581B00446FEF76D
:1049300008FB2046FDF793FF00908089451E0098F4
:10494000858100A8FDF79CFF2DB215B92046FEF722
:1049500011F8FEF7EEFA01B030BD00002DE9F0418C
:10496000069F04460D4616464FEA0308D4F808C0D1
:10497000DCF804C04346324629462046E047761C10
:104980007F1EF3D1BDE8F08110B5074C2068006BA5
:10499000FFF739F8FFF749F82068406BFFF733F865
:1049A000BDE81040FFF74AB88002002010B5044669
:1049B000FEF7C7FA2046FEF7C6FC0446FEF7B9FA32
:1049C000204610BD2DE9F24F17460FF25C7196B0EC
:1049D00081460CC914A8DFF804570CC04846FDF7FF
:1049E0003EFF0E904669C0680B900E9800690990D2
:1049F0000E98B0F908000F900E98B0F90A001090C8
:104A00000E980068006944682868407CFFF7DFFD65
:104A10000A902868407CFFF7FBFD80460EA8FDF752
:104A20002FFF0998092806D2012013900998012820
:104A300006D114A805E011282CBF042002201390F1
:104A4000002044450D9000F00A812868407CFFF763
:104A5000E5FD05460F988000FDF7EAFE002812905C
:104A600000F0AE81484602F095F8002E814600F035
:104A7000DF803046FDF7F3FE0890002610980128ED
:104A8000C0F2D280119700200790324608988368C0
:104A90005B6907A9984780460F9880453AD11298DC
:104AA000FDF7DDFE0C90CA4609980C9F0097092877
:104AB000C34609D33AF8020BA047A847BBF1010B44
:104AC00047F8040BF6D108E01AF8010BA047A847F5
:104AD000BBF1010B47F8040BF6D10A98202804D249
:104AE00002460098414602F06DF80D980F9A119910
:104AF000059001230C980490002003900A980290DE
:104B00000120019000901698FEF7D4FD0CA8FDF747
:104B1000B7FE7FE0099801282CD1B8F1000F79D0B9
:104B200007980799DDF81CC000F0070006900123E4
:104B30000D98059042460798801001EB507009EBE4
:104B4000E00004900B9811990390012002900190CD
:104B5000009016986044FEF7A1FC07984044079027
:104B60003246089883685B6907A998475FEA00089E
:104B7000D6D14FE0B8F1000F4CD01298FDF76FFE80
:104B80000C90C346079813990C9F01FB009A099853
:104B9000009709280AD300BF3AF8020BA047A8479C
:104BA000BBF1010B47F8040BF6D108E01AF8010B32
:104BB000A047A847BBF1010B47F8040BF6D10A98B0
:104BC000202804D202460098414601F0FBFF0D98D0
:104BD000DDF81CC01199059001230C980490424601
:104BE000002003900A9802900120019000901698EE
:104BF0006044FEF75FFD0CA8FDF742FE07984044B5
:104C000007903246089883685B6907A998475FEA6E
:104C10000008B2D10B9881441198401C1190761C69
:104C200010988642FFF62FAF08A8FDF729FE10E086
:104C30000D98109B0F9A0590CDF8109039460B985F
:104C40000390099802900120019000901698FEF7B9
:104C500031FD1298FDF78EFE17B0BDE8F08F484683
:104C600001F098FF002E814600F099803046FDF754
:104C7000F6FD0890002610980128C0F28A800020D6
:104C800007903246089883685B6907A99847804671
:104C90000F98804522D1344600E02E46089883685C
:104CA0005B69751C2A4607A998474045F5D0301B1B
:104CB000451C0D980F9A0590CDF810902B460B9837
:104CC0000390E11909980290012001900090169834
:104CD000FEF7F0FC0B9800FB059955E009980128B8
:104CE0002BD1B8F1000F4DD007980799079C00F021
:104CF0000700069001230D98059042460798801002
:104D000001EB507009EBE0000490F1190B9803904F
:104D1000012002900190009016982018FEF7BEFB2B
:104D20000798404407903246089883685B6907A952
:104D300098475FEA0008D7D124E0B8F1000F21D0EE
:104D40000D981399079C05900123079801FB00908B
:104D5000049042460B980390F119099802900120A3
:104D60000190009016982018FEF7A4FC0798404484
:104D700007903246089883685B6907A998475FEAFD
:104D80000008DDD10B9881441098761C8642FFF60E
:104D900076AF08A8FDF774FD17B0BDE8F08F0D9849
:104DA000109B0F9A0590CDF8109039460B98039000
:104DB000099802900120019000901698FEF77AFC65
:104DC00017B0BDE8F08F00002DE9F24F8EB081469C
:104DD00015461F46FDF743FD0790B0F90880B0F96E
:104DE0000A60C0680C90079818300A90079800680D
:104DF00000690B9007A8FDF743FD0B98B849D0F860
:104E000004B0B6480068407C51F820100C69D4F812
:104E100000A0FFF7DCFB092838BF012003D31128CD
:104E200034BF0220042008900B98A04212D1002029
:104E3000059033460A98049042460C9803900297D6
:104E400001200190009029460E98FEF733FC0FB028
:104E5000BDE8F08F202F40F07B80089800FB08F021
:104E6000FDF7E6FC00280A9000F03481FDF7F7FC1E
:104E700006904846FDF7F3FC079000F118092069F9
:104E800000283DD00898012804D0022804D0042826
:104E900004D00CE0012302E0022300E00423069981
:104EA000D4F810A042464846D04709EB88090020B4
:104EB000059001230698049042460020039029465D
:104EC0000898C00002906D1C0120019000900E987F
:104ED000FEF7F0FB761ED5D1F3E0069F59F8040BE0
:104EE000D047641E27F8020BF8D11AE0DDF81870DD
:104EF00059F8040BD047641E47F8040BF8D110E0B2
:104F000008980128444604D00228E6D00428EDD0B1
:104F100007E0069F59F8040BD047641E07F8010B01
:104F2000F8D1002005900123069804904246002005
:104F3000039029460898C00002906D1C0120019042
:104F400000900E98FEF7B6FB761E00F0BA80D7E709
:104F5000102F40F0BF80089800FB08F0FDF768FCB8
:104F600000280A9000F0B680FDF779FC06904846CC
:104F7000FDF775FC079000F11809206900281EBF95
:104F80000B984069002860D00798B0F908008000AD
:104F9000FDF74EFC5FEA000A19D0FDF760FC00281F
:104FA000099000F08E800898012804D0022811D0C2
:104FB00004281BD02DE0DDF82CC0069F0999DCF8F1
:104FC00014C0022342464846E047012319E000206E
:104FD000099076E0DDF82CC0069F0999DCF814C032
:104FE000022342464846E04702230AE0DDF82CC08F
:104FF000069F0999DCF814C0022342464846E04760
:1050000004230998D4F810C042463946E04709EB1A
:10501000480900200590012306980490424600208C
:10502000039029460898C00002906D1C0120019051
:1050300000900E98FEF73EFB761EB4D109A8FDF74E
:105040001FFC5046FDF796FC3BE0089801284446BB
:1050500004D002280DD0042815D01DE0DDF818700A
:1050600039F8020BD847D047641E07F8010BF7D177
:1050700012E0069F39F8020BD847D047641E27F884
:10508000020BF7D108E0069F39F8020BD847D0474A
:10509000641E47F8040BF7D1002005900123069801
:1050A000049042460020039029460898C0000290D0
:1050B0006D1C0120019000900E98FEF7FBFA761E01
:1050C000C3D107A8FDF7DCFB06A8FDF7D9FB0A98BA
:1050D000FDF750FC0FB0BDE8F08F0000800200200B
:1050E00084020020F0B581B004460D461646FDF757
:1050F000B6FB0090476900A8FDF7C2FB2046FDF70C
:10510000E1FD092800DB37B1324629462046FFF78A
:1051100059FC01B0F0BD0346324629462046FFF750
:1051200053FE01B0F0BD00000000000001000000CF
:1051300080B5684601F0DAFE02BD10B582B0040009
:105140006A460021200001F083FE13BD80B56B4646
:1051500001221549154801F01BFF6B460022144936
:10516000144801F015FF01BD00B583B001A80090FF
:105170000023002200210D4801F044FF07BD80B547
:105180006A460021094802F00FF801BD0A4800688C
:1051900090F83700704780B56B46002207490848F1
:1051A00001F0F6FE01BD0000EC33020850A0002023
:1051B0006833020878A0002030A40020F4330208ED
:1051C000A0A0002030B581B0044602F09AF8050096
:1051D0000AD0A54203D10025284601B030BDFDF715
:1051E00036FB006AA042F2D1284601B030BD10B5AE
:1051F000040007D0FDF7A5FE2046FDF728FB8469D3
:10520000FDF797FE204610BD30B5040083B01FD0D7
:10521000FDF725FB019041484568A54206D101995B
:105220004968416011E000A8FDF72AFB6DB12846EE
:10523000FDF715FB00904568A542F4D1019800994F
:105240004068486000A8FDF71BFB01A8FDF718FBAC
:1052500003B030BD30B5044681B0002020602F4837
:10526000056845B12846FDF7FAFA0090006920600C
:1052700000A8FDF705FB284601B030BD30B5044657
:105280000D4681B0002028608CB12046FDF7E7FA7A
:105290000090846844B100A8FDF7F2FA2046FDF7BB
:1052A000DEFA00900069286000A8FDF7E9FA2046C0
:1052B00001B030BD70B5040082B02CD0FDF741FEC6
:1052C000164D2E68A6420AD13046FDF7C8FA009066
:1052D0008068286000A814E001A8FDF7D1FA3046E4
:1052E000FDF7BDFA01908668A642F5D13046FDF77C
:1052F000B6FA009001998068886000A8FDF7C0FAAE
:1053000001A8FDF7BDFA2046FFF77EFF2046FDF716
:1053100031FBFDF70EFE02B070BD000094A200202C
:1053200030B5040081B00D4613D0FDF70AFE2046CB
:10533000FDF795FA009080892840441E00A8A441FA
:10534000FDF79EFAE443FDF7F4FDE40F204601B0BB
:1053500030BD0124204601B030BD100030B581B011
:105360000C46FEF71BFE0125009058B1009AD2684A
:10537000526A092100A89047020003D000982146F4
:1053800090470025284601B030BD70B582B00C466C
:105390001546FEF703FE0126009060B1009AD26820
:1053A000526A0A2100A89047030004D000982A46B8
:1053B000214698470026304602B070BD70B582B0D5
:1053C0000C461546FEF7EAFD0126009060B1009AF2
:1053D000D268526A0B2100A89047030004D00098BD
:1053E0002A46214698470026304602B070BD70B567
:1053F00082B00C461546FEF7D1FD0126009060B143
:10540000009AD268526A032100A89047030004D092
:1054100000982A46214698470026304602B070BDC3
:1054200070B582B00C461546FEF7B8FD0126009017
:1054300060B1009AD268526A102100A89047030018
:1054400004D000982A46214698470026304602B0EC
:1054500070BD70B582B00C461546FEF79FFD012663
:10546000009060B1009AD268526A042100A8904767
:10547000030004D000982A4621469847002630466B
:1054800002B070BD70B582B00C461546FEF786FDC1
:105490000126009060B1009AD268526A162100A8D5
:1054A0009047030004D000982A46214698470026DA
:1054B000304602B070BD0C0010B5514C6068FDF76D
:1054C000E5F80020606010BD10B54D4C606868B90B
:1054D00020688000FDF7E4F8606008B9012010BD85
:1054E0004848A06004F10800FEF7ECFC002010BD65
:1054F000F0B581B000281CBF8468002C1BD0404D43
:105500006968C1B10668B6F5807F14DC2868B042CE
:10551000B8BF06460027012EC0F20A8054F8040BDB
:10552000FEF771FA696841F827007F1CB742F5DB86
:10553000686801B0F0BD002001B0F0BDF0B581B0E9
:1055400000281CBF8468002C1BD02D4D6968C1B198
:105550000668B6F5807F14DC2868B042B8BF0646FE
:105560000027012EC0F20A8054F8040BFEF74BFA14
:10557000696841F827007F1CB742F5DB686801B015
:10558000F0BD002001B0F0BD2DE9F04F81B001F079
:10559000C2FE80460025B8F1010F2EDB1A4EDFF85F
:1055A0006CB01B4C2846FEF7F9FC10B3206890F84D
:1055B000119045742846FEF78CFF092816DA3068EA
:1055C0000069584512D02846FEF791FF8246002711
:1055D000BAF1010F0ADBF8B2FEF71EFA0246F9B281
:1055E0002846FFF71DFF7F1C5745F4DB206880F835
:1055F00011906D1C361D4545D4DB01B0BDE8F08F20
:10560000A0020020B95400088402002010320208D1
:105610008002002070B584B005460C4600A8002129
:1056200000220B460E464EC02846FDF710F90169D0
:10563000080003D00195009400A8884704B070BD0D
:1056400030B581B00446FDF77CFC04480068057E57
:105650000476FDF76EFC284601B030BD80020020C4
:1056600030B581B00446FDF76CFC05480068B0F920
:105670002C508485FDF75DFC284601B030BD00BF8D
:105680008002002030B581B00446FDF75AFC054881
:105690000068B0F92A504485FDF74BFC284601B05C
:1056A00030BD00BF8002002030B581B00446FDF758
:1056B00048FC05480068C56904B1C461FDF739FCC0
:1056C000284601B030BD00BF8002002030B581B057
:1056D0000446FDF736FC04480068857E8476FDF7B5
:1056E00028FC284601B030BD8002002070B586B08D
:1056F00004460D46FDF725FC0A490B48096850F899
:105700002100002648B10E210291009400A90591C4
:10571000019502A9FDF7C4FC0126FDF70AFC3046FD
:1057200006B070BD009E0020F09D002030B581B015
:1057300004460D46FDF705FC0648B0F90000206060
:105740000548B0F90000286001B0BDE83040FDF721
:10575000F0BB0000C8A40020CAA4002030B581B06E
:105760000446FDF7EEFB002514B909480068046EF5
:1057700044B12046FDF773F80090B0F90A5000A834
:10578000FDF77EF8FDF7D5FB284601B030BD00BF20
:105790008002002030B5040081B00D4602D10B48D4
:1057A0000068046E84B1FDF7CCFB2046FDF757F886
:1057B0000090B0F90A008542BCBF0098458100A85E
:1057C000FDF75EF8FDF7B5FB01B030BD80020020AB
:1057D00070B582B0060001BF19480068066E002E41
:1057E0000C4615462AD0FDF7ACFB3046FDF737F8DE
:1057F0000090C58000988480FEF77EF8009840698C
:10580000B8B1FDF72CF8019000980199B0F90800A3
:10581000888000280099019AB1F90A10D18018BF38
:10582000002903D0019804800198458001A8FDF764
:1058300027F800A8FDF724F8FDF77BFB02B070BD48
:105840008002002010B582B0040001BF0E4800683D
:10585000046E002C16D0FDF774FB2046FCF7FFFF0A
:105860000190446901A8FDF70BF84CB12046FCF704
:10587000F6FF009081688968884700A8FDF700F866
:10588000FDF757FB02B010BD8002002030B581B09B
:1058900004460D46FDF755FB0448006844848584A2
:1058A000FDF747FB002001B030BD00008002002062
:1058B00080B50648064908605FF4000104480068A6
:1058C000FDF734F88020FDF739F801BD000080C0F5
:1058D00088A30020012110F01F029140DFF84C2C1A
:1058E00040B2430942F82310704710B440B2002878
:1058F00009D50A01DFF8703B40B210F00F04E3183D
:1059000003F8042C04E00A01DFF8243C40B2C2543E
:1059100010BC7047F8B504000D0016001F000020F1
:1059200000903B00DBB232002900200000F02EFA8C
:10593000F1BDF8B504000D0016001F000020009016
:105940003B00DBB232002100280000F006FAF1BD76
:10595000F8B504000D0016001F00002000903B0069
:10596000DBB232002900200000F010FAF1BDF8B5DA
:1059700004000D0016001F00002000903B00DBB269
:1059800032002100280000F0E8F9F1BDF8B504006C
:105990000D0016001F00022000903B00DBB2320019
:1059A0002900200000F0F2F9F1BDF8B504000D0067
:1059B00016001F00022000903B00DBB232002100E5
:1059C000280000F0CAF9F1BDF8B504000D0016007A
:1059D0001F00032000903B00DBB2320029002000B2
:1059E00000F0D4F9F1BDF8B504000D0016001F0059
:1059F000032000903B00DBB232002100280000F0C1
:105A0000ACF9F1BDF8B504000D0016001F0004202C
:105A100000903B00DBB232002900200000F0B6F914
:105A2000F1BDF8B504000D0016001F000420009021
:105A30003B00DBB232002100280000F08EF9F1BDFE
:105A40000100002901D0002035E0DFF8E80A50F815
:105A500021000200DFF8E00A824201D100202AE0A2
:105A6000DFF8D80A824201D1012024E0DFF8D00A11
:105A7000824201D102201EE0DFF8C80A824201D131
:105A8000032018E0DFF8C00A824201D1042012E0AE
:105A9000DFF8B80A824201D105200CE0DFF8B00A35
:105AA000824201D1062006E0DFF8B00D824201D12A
:105AB000072000E0FEE77047F8B504000D00200065
:105AC000FEF707FD060005FB06F0C01D082190FB50
:105AD000F1F007003800F2BDDFF8782A10604A1EA6
